{"abi":[{"type":"constructor","inputs":[{"name":"_buyer","type":"address","internalType":"address"},{"name":"_vendor","type":"address","internalType":"address"},{"name":"_sponsor","type":"address","internalType":"address"},{"name":"_buyerDisputeSponsor","type":"address","internalType":"address"},{"name":"_vendorDisputeSponsor","type":"address","internalType":"address"},{"name":"_verifier","type":"address","internalType":"address"},{"name":"_numBlocks","type":"uint256","internalType":"uint256"},{"name":"_numGates","type":"uint256","internalType":"uint256"}],"stateMutability":"nonpayable"},{"type":"function","name":"VERIFIER","inputs":[],"outputs":[{"name":"","type":"address","internalType":"contract AccumulatorVerifier"}],"stateMutability":"view"},{"type":"function","name":"a","inputs":[],"outputs":[{"name":"","type":"uint256","internalType":"uint256"}],"stateMutability":"view"},{"type":"function","name":"b","inputs":[],"outputs":[{"name":"","type":"uint256","internalType":"uint256"}],"stateMutability":"view"},{"type":"function","name":"chall","inputs":[],"outputs":[{"name":"","type":"uint256","internalType":"uint256"}],"stateMutability":"view"},{"type":"function","name":"currState","inputs":[],"outputs":[{"name":"","type":"uint8","internalType":"enum DisputeSOX.State"}],"stateMutability":"view"},{"type":"function","name":"giveOpinion","inputs":[{"name":"_vendorAgrees","type":"bool","internalType":"bool"}],"outputs":[],"stateMutability":"nonpayable"},{"type":"function","name":"numBlocks","inputs":[],"outputs":[{"name":"","type":"uint256","internalType":"uint256"}],"stateMutability":"view"},{"type":"function","name":"numGates","inputs":[],"outputs":[{"name":"","type":"uint256","internalType":"uint256"}],"stateMutability":"view"},{"type":"function","name":"respondChallenge","inputs":[{"name":"_response","type":"bytes32","internalType":"bytes32"}],"outputs":[],"stateMutability":"nonpayable"},{"type":"function","name":"submitCommitment","inputs":[{"name":"_hCircuit","type":"bytes32","internalType":"bytes32"},{"name":"_hCt","type":"bytes32","internalType":"bytes32"},{"name":"_gate","type":"bytes32[]","internalType":"bytes32[]"},{"name":"_values","type":"bytes32[]","internalType":"bytes32[]"},{"name":"_currAcc","type":"bytes32","internalType":"bytes32"},{"name":"_proof1","type":"bytes32","internalType":"bytes32"},{"name":"_proof2","type":"bytes32","internalType":"bytes32"},{"name":"_proof3","type":"bytes32","internalType":"bytes32"},{"name":"_proofExt","type":"bytes32","internalType":"bytes32"}],"outputs":[],"stateMutability":"nonpayable"},{"type":"function","name":"submitCommitmentLeft","inputs":[{"name":"_hCircuit","type":"bytes32","internalType":"bytes32"},{"name":"_hCt","type":"bytes32","internalType":"bytes32"},{"name":"_gate","type":"bytes32[]","internalType":"bytes32[]"},{"name":"_values","type":"bytes32[]","internalType":"bytes32[]"},{"name":"_currAcc","type":"bytes32","internalType":"bytes32"},{"name":"_proof1","type":"bytes32","internalType":"bytes32"},{"name":"_proof2","type":"bytes32","internalType":"bytes32"},{"name":"_proofExt","type":"bytes32","internalType":"bytes32"}],"outputs":[],"stateMutability":"nonpayable"},{"type":"function","name":"submitCommitmentRight","inputs":[{"name":"proof","type":"bytes32","internalType":"bytes32"}],"outputs":[],"stateMutability":"nonpayable"},{"type":"function","name":"timeout","inputs":[],"outputs":[{"name":"","type":"uint256","internalType":"uint256"}],"stateMutability":"view"}],"bytecode":{"object":"0x60a06040523461007a576100236100146101c8565b969590959491949392936103ec565b61002b61007f565b61207a61057c823960805181818161011201528181610f550152818161101a015281816110d90152818161192f01528181611a1e01528181611afb01528181611bea0152611e09015261207a90f35b610085565b60405190565b5f80fd5b601f801991011690565b634e487b7160e01b5f52604160045260245ffd5b906100b190610089565b810190811060018060401b038211176100c957604052565b610093565b906100e16100da61007f565b92836100a7565b565b5f80fd5b60018060a01b031690565b6100fb906100e7565b90565b610107816100f2565b0361010e57565b5f80fd5b9050519061011f826100fe565b565b90565b61012d81610121565b0361013457565b5f80fd5b9050519061014582610124565b565b9190610100838203126101c357610160815f8501610112565b9261016e8260208301610112565b9261017c8360408401610112565b9261018a8160608501610112565b926101988260808301610112565b926101c06101a98460a08501610112565b936101b78160c08601610138565b9360e001610138565b90565b6100e3565b6101e66125f6803803806101db816100ce565b928339810190610147565b9091929394959697565b5f1b90565b906102015f19916101f0565b9181191691161790565b90565b90565b61022561022061022a9261020b565b61020e565b610121565b90565b90565b9061024561024061024c92610211565b61022d565b82546101f5565b9055565b9061026160018060a01b03916101f0565b9181191691161790565b61027f61027a610284926100e7565b61020e565b6100e7565b90565b6102909061026b565b90565b61029c90610287565b90565b90565b906102b76102b26102be92610293565b61029f565b8254610250565b9055565b6102d66102d16102db92610121565b61020e565b610121565b90565b906102f36102ee6102fa926102c2565b61022d565b82546101f5565b9055565b6103079061026b565b90565b610313906102fe565b90565b90565b61032d61032861033292610316565b61020e565b610121565b90565b634e487b7160e01b5f52601160045260245ffd5b61035861035e91939293610121565b92610121565b820180921161036957565b610335565b5f1c90565b90565b6103826103879161036e565b610373565b90565b6103949054610376565b90565b90565b6103ae6103a96103b392610397565b61020e565b610121565b90565b634e487b7160e01b5f52601260045260245ffd5b6103d66103dc91610121565b91610121565b9081156103e7570490565b6103b6565b946104416104769561043a61046f966104336104869b9761042c61045c9861048d9f9d6104259061041f600a600c610230565b5f6102a2565b60016102a2565b60026102a2565b60036102a2565b60046102a2565b61044c8360056102de565b6104578660066102de565b61030a565b6080526104696001610319565b90610349565b60076102de565b6104806001610319565b90610349565b60086102de565b6104c76104c06104b06104a0600761038a565b6104aa600861038a565b90610349565b6104ba600261039a565b906103ca565b60096102de565b6104db5f6104d5600c61038a565b9061055a565b565b60a01b90565b906104f260ff60a01b916104dd565b9181191691161790565b634e487b7160e01b5f52602160045260245ffd5b6008111561051a57565b6104fc565b9061052982610510565b565b6105349061051f565b90565b90565b9061054f61054a6105569261052b565b610537565b82546104e3565b9055565b6105799161056c61057292600461053a565b42610349565b600b6102de565b56fe6101206040526004361015610014575b6107f3565b61001e5f356100ed565b806308c84e70146100e85780630dbe671f146100e35780632b8786a7146100de5780634552b330146100d957806346f79443146100d45780634df7e3d0146100cf5780636be0b145146100ca57806370dea79a146100c5578063926abd18146100c0578063930fc216146100bb578063afe01043146100b6578063d1b92e43146100b15763e26af81d0361000f576107c0565b61078b565b610747565b610679565b61062a565b610533565b6104f1565b610476565b610427565b6102f4565b610272565b61022e565b610198565b60e01c90565b60405190565b5f80fd5b5f80fd5b5f91031261010b57565b6100fd565b7f000000000000000000000000000000000000000000000000000000000000000090565b60018060a01b031690565b90565b61015661015161015b92610134565b61013f565b610134565b90565b61016790610142565b90565b6101739061015e565b90565b61017f9061016a565b9052565b9190610196905f60208501940190610176565b565b346101c8576101a8366004610101565b6101c46101b3610110565b6101bb6100f3565b91829182610183565b0390f35b6100f9565b1c90565b90565b6101e49060086101e993026101cd565b6101d1565b90565b906101f791546101d4565b90565b61020660075f906101ec565b90565b90565b61021590610209565b9052565b919061022c905f6020850194019061020c565b565b3461025e5761023e366004610101565b61025a6102496101fa565b6102516100f3565b91829182610219565b0390f35b6100f9565b61026f60095f906101ec565b90565b346102a257610282366004610101565b61029e61028d610263565b6102956100f3565b91829182610219565b0390f35b6100f9565b5f80fd5b90565b6102b7816102ab565b036102be57565b5f80fd5b905035906102cf826102ae565b565b906020828203126102ea576102e7915f016102c2565b90565b6100fd565b5f0190565b346103225761030c6103073660046102d1565b610ac0565b6103146100f3565b8061031e816102ef565b0390f35b6100f9565b5f80fd5b5f80fd5b5f80fd5b909182601f8301121561036d5781359167ffffffffffffffff831161036857602001926020830284011161036357565b61032f565b61032b565b610327565b9091610100828403126104225761038b835f84016102c2565b9261039981602085016102c2565b92604081013567ffffffffffffffff811161041d57826103ba918301610333565b929093606083013567ffffffffffffffff811161041857826103dd918501610333565b9290936103ed82608083016102c2565b926104156103fe8460a085016102c2565b9361040c8160c086016102c2565b9360e0016102c2565b90565b6102a7565b6102a7565b6100fd565b346104625761044c61043a366004610372565b9897909796919695929594939461119c565b6104546100f3565b8061045e816102ef565b0390f35b6100f9565b61047360085f906101ec565b90565b346104a657610486366004610101565b6104a2610491610467565b6104996100f3565b91829182610219565b0390f35b6100f9565b151590565b6104b9816104ab565b036104c057565b5f80fd5b905035906104d1826104b0565b565b906020828203126104ec576104e9915f016104c4565b90565b6100fd565b3461051f576105096105043660046104d3565b611493565b6105116100f3565b8061051b816102ef565b0390f35b6100f9565b610530600b5f906101ec565b90565b3461056357610543366004610101565b61055f61054e610524565b6105566100f3565b91829182610219565b0390f35b6100f9565b610120818303126106255761057f825f83016102c2565b9261058d83602084016102c2565b92604083013567ffffffffffffffff811161062057816105ae918501610333565b929093606081013567ffffffffffffffff811161061b57836105d1918301610333565b9290936105e181608085016102c2565b926105ef8260a083016102c2565b926106186106008460c085016102c2565b9361060e8160e086016102c2565b93610100016102c2565b90565b6102a7565b6102a7565b6100fd565b346106655761064f61063d366004610568565b99989098979197969296959395611cb6565b6106576100f3565b80610661816102ef565b0390f35b6100f9565b61067660055f906101ec565b90565b346106a957610689366004610101565b6106a561069461066a565b61069c6100f3565b91829182610219565b0390f35b6100f9565b60ff1690565b6106c49060086106c993026101cd565b6106ae565b90565b906106d791546106b4565b90565b6106e760046014906106cc565b90565b634e487b7160e01b5f52602160045260245ffd5b6008111561070857565b6106ea565b90610717826106fe565b565b6107229061070d565b90565b61072e90610719565b9052565b9190610745905f60208501940190610725565b565b3461077757610757366004610101565b6107736107626106da565b61076a6100f3565b91829182610732565b0390f35b6100f9565b61078860065f906101ec565b90565b346107bb5761079b366004610101565b6107b76107a661077c565b6107ae6100f3565b91829182610219565b0390f35b6100f9565b346107ee576107d86107d33660046102d1565b611f06565b6107e06100f3565b806107ea816102ef565b0390f35b6100f9565b5f80fd5b5f1c90565b60018060a01b031690565b610813610818916107f7565b6107fc565b90565b6108259054610807565b90565b61083190610134565b90565b60209181520190565b5f7f556e65787065637465642073656e646572000000000000000000000000000000910152565b6108716011602092610834565b61087a8161083d565b0190565b6108939060208101905f818303910152610864565b90565b1561089d57565b6108a56100f3565b62461bcd60e51b8152806108bb6004820161087e565b0390fd5b60a01c90565b6108d16108d6916108bf565b6106ae565b90565b6108e390546108c5565b90565b60207f63757272656e7420737461746500000000000000000000000000000000000000917f43616e6e6f742072756e20746869732066756e6374696f6e20696e20746865205f8201520152565b610940602d604092610834565b610949816108e6565b0190565b6109629060208101905f818303910152610933565b90565b1561096c57565b6109746100f3565b62461bcd60e51b81528061098a6004820161094d565b0390fd5b6109e3906109de61099e5f61081b565b6109bc5f916109b66109b03392610828565b91610828565b14610896565b6109d86109d26109cc60046108d9565b9261070d565b9161070d565b14610965565b610a8b565b565b6109f16109f6916107f7565b6101d1565b90565b610a0390546109e5565b90565b610a1a610a15610a1f92610209565b61013f565b610209565b90565b90610a2c90610a06565b5f5260205260405f2090565b5f1b90565b90610a495f1991610a38565b9181191691161790565b610a5c906102ab565b90565b610a68906107f7565b90565b90610a80610a7b610a8792610a53565b610a5f565b8254610a3d565b9055565b610aa990610aa4600a610a9e60096109f9565b90610a22565b610a6b565b610abe6001610ab8600c6109f9565b90611f5f565b565b610ac99061098e565b565b90610b2b999897969594939291610b26610ae5600161081b565b610b04600391610afe610af83392610828565b91610828565b14610896565b610b20610b1a610b1460046108d9565b9261070d565b9161070d565b14610965565b610e69565b565b601f801991011690565b634e487b7160e01b5f52604160045260245ffd5b90610b5590610b2d565b810190811067ffffffffffffffff821117610b6f57604052565b610b37565b90610b87610b806100f3565b9283610b4b565b565b67ffffffffffffffff8111610ba15760208091020190565b610b37565b90929192610bbb610bb682610b89565b610b74565b9381855260208086019202830192818411610bf857915b838310610bdf5750505050565b60208091610bed84866102c2565b815201920191610bd2565b61032f565b610c08913691610ba6565b90565b634e487b7160e01b5f52603260045260245ffd5b9190811015610c2f576020020190565b610c0b565b90565b610c4b610c46610c5092610c34565b61013f565b610209565b90565b35610c5d816102ae565b90565b610c6c610c71916107f7565b610a06565b90565b90565b610c83610c88916107f7565b610c74565b90565b610c959054610c77565b90565b90565b610caf610caa610cb492610c98565b61013f565b610209565b90565b5f80fd5b5f80fd5b90939293848311610cdf578411610cda576020820201920390565b610cbb565b610cb7565b60e01b90565b90505190610cf7826104b0565b565b90602082820312610d1257610d0f915f01610cea565b90565b6100fd565b610d20906102ab565b9052565b60209181520190565b5f80fd5b9037565b909182610d4191610d24565b9160018060fb1b038111610d645782916020610d609202938491610d31565b0190565b610d2d565b9695939094610d9a88606095610da895610d8d610db09a5f60808601950190610d17565b8b830360208d0152610d35565b9188830360408a0152610d35565b940190610d17565b565b610dba6100f3565b3d5f823e3d90fd5b90565b610dd9610dd4610dde92610dc2565b61013f565b610209565b90565b634e487b7160e01b5f52601160045260245ffd5b610e04610e0a91939293610209565b92610209565b8203918211610e1557565b610de1565b5f9052565b610e60610e6794610e56608094989795610e4060a086019a5f87019061020c565b610e4c60208601610e1a565b6040850190610d17565b6060830190610d17565b0190610d17565b565b97949895969892919283839086908392610e8291610bfd565b91610e8c91610bfd565b610e9591611f84565b9884845f610ea290610c37565b90610eac92610c1f565b610eb590610c53565b610ebe90610c60565b9a89600a8d610ecc91610a22565b610ed590610c8b565b610ede906102ab565b90610ee8906102ab565b141591826110cf575b50509586611003575b5050505050509384610f43575b505050505f14610f2957610f266005610f20600c6109f9565b90611f5f565b5b565b610f3e6006610f38600c6109f9565b90611f5f565b610f27565b60209394505f610fa991610fb4610f797f000000000000000000000000000000000000000000000000000000000000000061016a565b94610f9363b16904b893610f8d60056109f9565b90610df5565b9698610f9d6100f3565b998a9889978896610ce4565b865260048601610e1f565b03925af1908115610ffe575f91610fd0575b505f808080610f07565b610ff1915060203d8111610ff7575b610fe98183610b4b565b810190610cf9565b5f610fc6565b503d610fdf565b610db2565b60209596509161107e5f926110739461105961103e7f000000000000000000000000000000000000000000000000000000000000000061016a565b9763e2fad7f89599906110516002610dc5565b908092610cbf565b92909a9091926110676100f3565b9b8c9a8b998a98610ce4565b885260048801610d69565b03925af19081156110ca575f9161109c575b505f8080808080610efa565b6110bd915060203d81116110c3575b6110b58183610b4b565b810190610cf9565b5f611090565b503d6110ab565b610db2565b60209192506110fd7f000000000000000000000000000000000000000000000000000000000000000061016a565b6111445f63e2fad7f861114f61112a8c8c859061112461111e600193610c37565b92610c9b565b92610cbf565b90988d8d91926111386100f3565b9b8c9a8b998a98610ce4565b885260048801610d69565b03925af1908115611197575f91611169575b505f80610ef1565b61118a915060203d8111611190575b6111828183610b4b565b810190610cf9565b5f611161565b503d611178565b610db2565b906111ae999897969594939291610acb565b565b611207906112026111c1600161081b565b6111e06001916111da6111d43392610828565b91610828565b14610896565b6111fc6111f66111f060046108d9565b9261070d565b9161070d565b14610965565b611287565b565b61121861121e91939293610209565b92610209565b820180921161122957565b610de1565b90565b9061124661124161124d92610a06565b61122e565b8254610a3d565b9055565b634e487b7160e01b5f52601260045260245ffd5b61127161127791610209565b91610209565b908115611282570490565b611251565b61129190156104ab565b5f14611467576112ab6112a460096109f9565b6008611231565b5b6112b660076109f9565b6112d16112cb6112c660086109f9565b610209565b91610209565b03611417576112f36112e360056109f9565b6112ed6001610c9b565b90611209565b61130e61130861130360096109f9565b610209565b91610209565b10806113ea575b5f1461133357611330600261132a600c6109f9565b90611f5f565b5b565b61133d60096109f9565b61136b61136561136061135060056109f9565b61135a6001610c9b565b90611209565b610209565b91610209565b145f1461138d576113876003611381600c6109f9565b90611f5f565b5b611331565b61139760096109f9565b6113c56113bf6113ba6113aa60066109f9565b6113b46001610c9b565b90611209565b610209565b91610209565b146113d0575b611388565b6113e560046113df600c6109f9565b90611f5f565b6113cb565b506113f560096109f9565b61141061140a61140560066109f9565b610209565b91610209565b1115611315565b61145161144a61143a61142a60076109f9565b61143460086109f9565b90611209565b6114446002610dc5565b90611265565b6009611231565b6114655f61145f600c6109f9565b90611f5f565b565b61148e61148761147760096109f9565b6114816001610c9b565b90611209565b6007611231565b6112ac565b61149c906111b0565b565b906114ff9a9998979695949392916114fa6114b9600161081b565b6114d86002916114d26114cc3392610828565b91610828565b14610896565b6114f46114ee6114e860046108d9565b9261070d565b9161070d565b14610965565b6116fc565b565b5090565b9061151761151283610b89565b610b74565b918252565b369037565b9061154661152e83611505565b9260208061153c8693610b89565b920191039061151c565b565b60016115549101610209565b90565b5190565b61156f61156a61157492610209565b610a38565b6102ab565b90565b9061158182611557565b811015611592576020809102010190565b610c0b565b906115a1906102ab565b9052565b96959390946115d6886060956115e4956115c96115ec9a5f60808601950190610d17565b8b830360208d0152610d35565b9188830360408a0152610d35565b940190610d17565b565b60200190565b6115fd906102ab565b9052565b9061160e816020936115f4565b0190565b60200190565b9061163561162f61162884611557565b8093610d24565b926115ee565b905f5b8181106116455750505090565b90919261165e6116586001928651611601565b94611612565b9101919091611638565b9594926116ad946116976116a59360609561168a60808c01925f8d0190610d17565b8a820360208c0152611618565b9188830360408a0152610d35565b940190610d17565b565b909594926116fa946116e96116f3926116df6080966116d560a088019c5f89019061020c565b6020870190610d17565b6040850190610d17565b6060830190610d17565b0190610d17565b565b9997919a989495969a92909260805260c0526101005261173760805161173160c0519161172b86938992610bfd565b92610bfd565b90611f84565b9361176461175f61175960805160c0516117516002610dc5565b908092610cbf565b90610bfd565b611fb5565b60a05261177a611775848390610bfd565b611fb5565b916117a361179e61179960805160c0516117935f610c37565b91610c1f565b610c53565b610c60565b996117da6117d56117c56117bc60805160c05190611501565b60a05190610df5565b6117cf6002610dc5565b90610df5565b611521565b60e0526117e65f610c37565b5b806118046117fe6117f960e051611557565b610209565b91610209565b1015611889576118849061187f8d61187a61186f61186a61185a61185561185060805160c05161184a61183a8c60a05190611209565b6118446002610dc5565b90611209565b91610c1f565b610c53565b610c60565b61186460056109f9565b90610df5565b61155b565b60e051929092611577565b611597565b611548565b6117e7565b508a989a929394959697999b8a6118bb6118b56118b06118ab600a8990610a22565b610c8b565b6102ab565b916102ab565b14159182611bde575b50509081611aed575b509485611a08575b5050505050938461191d575b505050505f146119035761190060056118fa600c6109f9565b90611f5f565b5b565b6119186006611912600c6109f9565b90611f5f565b611901565b60209394505f6119ae916119b96119537f000000000000000000000000000000000000000000000000000000000000000061016a565b9463b16904b8926119966119916119748a61196e60056109f9565b90610df5565b9961198b600a916119856001610c9b565b90610df5565b90610a22565b610c8b565b999190916119a26100f3565b9a8b998a988997610ce4565b8752600487016116af565b03925af1908115611a03575f916119d5575b505f8080806118e1565b6119f6915060203d81116119fc575b6119ee8183610b4b565b810190610cf9565b5f6119cb565b503d6119e4565b610db2565b6020949550611a9291611a9d5f92611a7d611a427f000000000000000000000000000000000000000000000000000000000000000061016a565b96611a70611a6b63e2fad7f896611a65600a91611a5f6001610c9b565b90610df5565b90610a22565b610c8b565b9860e0519b918092610cbf565b90611a866100f3565b9a8b998a988997610ce4565b875260048701611668565b03925af1908115611ae8575f91611aba575b505f808085816118d5565b611adb915060203d8111611ae1575b611ad38183610b4b565b810190610cf9565b5f611aaf565b503d611ac9565b610db2565b611b91925060209150611b1f7f000000000000000000000000000000000000000000000000000000000000000061016a565b611b865f63e2fad7f8611b5a60805160c051600290611b53611b4d60a051611b476002610dc5565b90611209565b92610dc5565b9192610cbf565b611b6c8c9992998b8d90879192610cbf565b906101005192611b7a6100f3565b9b8c9a8b998a98610ce4565b8852600488016115a5565b03925af18015611bd95787915f91611bab575b505f6118cd565b611bcc915060203d8111611bd2575b611bc48183610b4b565b810190610cf9565b5f611ba4565b503d611bba565b610db2565b90935060209150611c0e7f000000000000000000000000000000000000000000000000000000000000000061016a565b611c5d5f63e2fad7f8611c68611c3f60805160c0518590611c39611c33600193610c37565b92610c9b565b92610cbf565b909960805160c0519192611c516100f3565b9c8d9a8b998a98610ce4565b885260048801610d69565b03925af18015611cb15788925f91611c83575b505f806118c4565b611ca4915060203d8111611caa575b611c9c8183610b4b565b810190610cf9565b5f611c7b565b503d611c92565b610db2565b90611cc99a99989796959493929161149e565b565b611d2290611d1d611cdc600161081b565b611cfb600491611cf5611cef3392610828565b91610828565b14610896565b611d17611d11611d0b60046108d9565b9261070d565b9161070d565b14610965565b611d6b565b565b949391611d6993611d53606093611d6193611d4660808b01925f8c0190610d17565b89820360208b0152611618565b908782036040890152611618565b940190610d17565b565b6020611d7f611d7a6001610c9b565b611521565b91611dad611d95611d906001610c9b565b61155b565b611da885611da25f610c37565b90611577565b611597565b611dbf611dba6001610c9b565b611521565b90611e00611de8611de3611dd360066109f9565b611ddd60056109f9565b90610df5565b61155b565b611dfb84611df55f610c37565b90611577565b611597565b611e7d5f611e2d7f000000000000000000000000000000000000000000000000000000000000000061016a565b92611e8863e2fad7f891611e67611e62600a611e5c611e4c60066109f9565b611e566002610dc5565b90610df5565b90610a22565b610c8b565b9698611e716100f3565b998a9889978896610ce4565b865260048601611d24565b03925af1908115611f01575f91611ed3575b505f14611eb957611eb66005611eb0600c6109f9565b90611f5f565b5b565b611ece6006611ec8600c6109f9565b90611f5f565b611eb7565b611ef4915060203d8111611efa575b611eec8183610b4b565b810190610cf9565b5f611e9a565b503d611ee2565b610db2565b611f0f90611ccb565b565b60a01b90565b90611f2660ff60a01b91611f11565b9181191691161790565b611f399061070d565b90565b90565b90611f54611f4f611f5b92611f30565b611f3c565b8254611f17565b9055565b611f7e91611f71611f77926004611f3f565b42611209565b600b611231565b565b5f90565b5050611f8e611f80565b50611fa1611f9c6001610c9b565b61155b565b90565b5f90565b611fb290516102ab565b90565b611fbd611fa4565b50611fc75f610c37565b5b80611fe3611fdd611fd885611557565b610209565b91610209565b101561203757612004611fff611ffa848490611577565b611fa8565b610c60565b61201f61201961201460056109f9565b610209565b91610209565b116120325761202d90611548565b611fc8565b905090565b5061204190611557565b9056fea26469706673582212201cf84c0bbcc035431b4d040d203bc23d5c395a9d1fc2e2335d1602e9f9d0436264736f6c634300081c0033","linkReferences":{}},"methodIdentifiers":{"VERIFIER()":"08c84e70","a()":"0dbe671f","b()":"4df7e3d0","chall()":"2b8786a7","currState()":"afe01043","giveOpinion(bool)":"6be0b145","numBlocks()":"930fc216","numGates()":"d1b92e43","respondChallenge(bytes32)":"4552b330","submitCommitment(bytes32,bytes32,bytes32[],bytes32[],bytes32,bytes32,bytes32,bytes32,bytes32)":"926abd18","submitCommitmentLeft(bytes32,bytes32,bytes32[],bytes32[],bytes32,bytes32,bytes32,bytes32)":"46f79443","submitCommitmentRight(bytes32)":"e26af81d","timeout()":"70dea79a"},"id":18}