{"abi":[{"type":"constructor","inputs":[{"name":"_optimisticContract","type":"address","internalType":"address"},{"name":"_numBlocks","type":"uint256","internalType":"uint256"},{"name":"_numGates","type":"uint256","internalType":"uint256"},{"name":"_commitment","type":"bytes32","internalType":"bytes32"}],"stateMutability":"payable"},{"type":"function","name":"a","inputs":[],"outputs":[{"name":"","type":"uint256","internalType":"uint256"}],"stateMutability":"view"},{"type":"function","name":"agreedPrice","inputs":[],"outputs":[{"name":"","type":"uint256","internalType":"uint256"}],"stateMutability":"view"},{"type":"function","name":"b","inputs":[],"outputs":[{"name":"","type":"uint256","internalType":"uint256"}],"stateMutability":"view"},{"type":"function","name":"buyer","inputs":[],"outputs":[{"name":"","type":"address","internalType":"address"}],"stateMutability":"view"},{"type":"function","name":"buyerDisputeSponsor","inputs":[],"outputs":[{"name":"","type":"address","internalType":"address"}],"stateMutability":"view"},{"type":"function","name":"buyerResponses","inputs":[{"name":"","type":"uint256","internalType":"uint256"}],"outputs":[{"name":"","type":"bytes32","internalType":"bytes32"}],"stateMutability":"view"},{"type":"function","name":"cancelDispute","inputs":[],"outputs":[],"stateMutability":"nonpayable"},{"type":"function","name":"chall","inputs":[],"outputs":[{"name":"","type":"uint256","internalType":"uint256"}],"stateMutability":"view"},{"type":"function","name":"commitment","inputs":[],"outputs":[{"name":"","type":"bytes32","internalType":"bytes32"}],"stateMutability":"view"},{"type":"function","name":"completeDispute","inputs":[],"outputs":[],"stateMutability":"nonpayable"},{"type":"function","name":"currState","inputs":[],"outputs":[{"name":"","type":"uint8","internalType":"enum DisputeSOX.State"}],"stateMutability":"view"},{"type":"function","name":"getBuyerResponse","inputs":[{"name":"_challNum","type":"uint256","internalType":"uint256"}],"outputs":[{"name":"","type":"bytes32","internalType":"bytes32"}],"stateMutability":"view"},{"type":"function","name":"getLatestBuyerResponse","inputs":[],"outputs":[{"name":"","type":"bytes32","internalType":"bytes32"}],"stateMutability":"view"},{"type":"function","name":"giveOpinion","inputs":[{"name":"_vendorAgrees","type":"bool","internalType":"bool"}],"outputs":[],"stateMutability":"nonpayable"},{"type":"function","name":"nextTimeoutTime","inputs":[],"outputs":[{"name":"","type":"uint256","internalType":"uint256"}],"stateMutability":"view"},{"type":"function","name":"numBlocks","inputs":[],"outputs":[{"name":"","type":"uint256","internalType":"uint256"}],"stateMutability":"view"},{"type":"function","name":"numGates","inputs":[],"outputs":[{"name":"","type":"uint256","internalType":"uint256"}],"stateMutability":"view"},{"type":"function","name":"optimisticContract","inputs":[],"outputs":[{"name":"","type":"address","internalType":"contract IOptimisticSOX"}],"stateMutability":"view"},{"type":"function","name":"respondChallenge","inputs":[{"name":"_response","type":"bytes32","internalType":"bytes32"}],"outputs":[],"stateMutability":"nonpayable"},{"type":"function","name":"submitCommitment","inputs":[{"name":"_hCircuitCt","type":"bytes[2]","internalType":"bytes[2]"},{"name":"_gateNum","type":"uint256","internalType":"uint256"},{"name":"_gate","type":"uint256[]","internalType":"uint256[]"},{"name":"_values","type":"bytes[]","internalType":"bytes[]"},{"name":"_version","type":"uint256","internalType":"uint256"},{"name":"_currAcc","type":"bytes32","internalType":"bytes32"},{"name":"_proof1","type":"bytes32[][]","internalType":"bytes32[][]"},{"name":"_proof2","type":"bytes32[][]","internalType":"bytes32[][]"},{"name":"_proof3","type":"bytes32[][]","internalType":"bytes32[][]"},{"name":"_proofExt","type":"bytes32[][]","internalType":"bytes32[][]"}],"outputs":[],"stateMutability":"nonpayable"},{"type":"function","name":"submitCommitmentLeft","inputs":[{"name":"_hCircuitCt","type":"bytes[2]","internalType":"bytes[2]"},{"name":"_gateNum","type":"uint256","internalType":"uint256"},{"name":"_gate","type":"uint256[]","internalType":"uint256[]"},{"name":"_values","type":"bytes[]","internalType":"bytes[]"},{"name":"_version","type":"uint256","internalType":"uint256"},{"name":"_currAcc","type":"bytes32","internalType":"bytes32"},{"name":"_proof1","type":"bytes32[][]","internalType":"bytes32[][]"},{"name":"_proof2","type":"bytes32[][]","internalType":"bytes32[][]"},{"name":"_proofExt","type":"bytes32[][]","internalType":"bytes32[][]"}],"outputs":[],"stateMutability":"nonpayable"},{"type":"function","name":"submitCommitmentRight","inputs":[{"name":"_proof","type":"bytes32[][]","internalType":"bytes32[][]"}],"outputs":[],"stateMutability":"nonpayable"},{"type":"function","name":"timeoutHasPassed","inputs":[],"outputs":[{"name":"","type":"bool","internalType":"bool"}],"stateMutability":"view"},{"type":"function","name":"timeoutIncrement","inputs":[],"outputs":[{"name":"","type":"uint256","internalType":"uint256"}],"stateMutability":"view"},{"type":"function","name":"vendor","inputs":[],"outputs":[{"name":"","type":"address","internalType":"address"}],"stateMutability":"view"},{"type":"function","name":"vendorDisputeSponsor","inputs":[],"outputs":[{"name":"","type":"address","internalType":"address"}],"stateMutability":"view"}],"bytecode":{"object":"0x608060405261001861000f61015e565b929190916105f8565b61002061002e565b613d4a610bd68239613d4a90f35b60405190565b601f801991011690565b634e487b7160e01b5f52604160045260245ffd5b9061005c90610034565b810190811060018060401b0382111761007457604052565b61003e565b9061008c61008561002e565b9283610052565b565b5f80fd5b60018060a01b031690565b6100a690610092565b90565b6100b28161009d565b036100b957565b5f80fd5b905051906100ca826100a9565b565b90565b6100d8816100cc565b036100df57565b5f80fd5b905051906100f0826100cf565b565b90565b6100fe816100f2565b0361010557565b5f80fd5b90505190610116826100f5565b565b6080818303126101595761012e825f83016100bd565b9261015661013f84602085016100e3565b9361014d81604086016100e3565b93606001610109565b90565b61008e565b61017c6149208038038061017181610079565b928339810190610118565b90919293565b90565b61019961019461019e92610092565b610182565b610092565b90565b6101aa90610185565b90565b6101b6906101a1565b90565b5f1b90565b906101cf60018060a01b03916101b9565b9181191691161790565b6101e2906101a1565b90565b90565b906101fd6101f8610204926101d9565b6101e5565b82546101be565b9055565b5f1c90565b60018060a01b031690565b61022461022991610208565b61020d565b90565b6102369054610218565b90565b61024290610185565b90565b61024e90610239565b90565b60e01b90565b6009111561026157565b5f80fd5b9050519061027282610257565b565b9060208282031261028d5761028a915f01610265565b90565b61008e565b5f0190565b61029f61002e565b3d5f823e3d90fd5b634e487b7160e01b5f52602160045260245ffd5b600911156102c557565b6102a7565b906102d4826102bb565b565b60209181520190565b60207f6e6720666f722061206469737075746520746f20737461727400000000000000917f4f7074696d697374696320636f6e7472616374206973206e6f742077616974695f8201520152565b61033960396040926102d6565b610342816102df565b0190565b61035b9060208101905f81830391015261032c565b90565b1561036557565b61036d61002e565b62461bcd60e51b81528061038360048201610346565b0390fd5b906020828203126103a05761039d915f016100e3565b90565b61008e565b60207f616e7366657220746865207072696365206f6620746865206974656d00000000917f4e656564206174206c6561737420656e6f756768206d6f6e657920746f2074725f8201520152565b6103ff603c6040926102d6565b610408816103a5565b0190565b6104219060208101905f8183039101526103f2565b90565b1561042b57565b61043361002e565b62461bcd60e51b8152806104496004820161040c565b0390fd5b9060208282031261046657610463915f016100bd565b90565b61008e565b61047490610239565b90565b90565b9061048f61048a6104969261046b565b610477565b82546101be565b9055565b906104a65f19916101b9565b9181191691161790565b6104c46104bf6104c9926100cc565b610182565b6100cc565b90565b90565b906104e46104df6104eb926104b0565b6104cc565b825461049a565b9055565b6104f8906100f2565b90565b61050490610208565b90565b9061051c610517610523926104ef565b6104fb565b825461049a565b9055565b90565b61053e61053961054392610527565b610182565b6100cc565b90565b634e487b7160e01b5f52601160045260245ffd5b61056961056f919392936100cc565b926100cc565b820180921161057a57565b610546565b90565b61058e61059391610208565b61057f565b90565b6105a09054610582565b90565b90565b6105ba6105b56105bf926105a3565b610182565b6100cc565b90565b634e487b7160e01b5f52601260045260245ffd5b6105e26105e8916100cc565b916100cc565b9081156105f3570490565b6105c2565b61060861060e91949392946101ad565b5f6101e8565b61063a602061062461061f5f61022c565b610245565b63afe010439061063261002e565b938492610251565b8252818061064a60048201610292565b03915afa8015610b3d57610679915f91610b0f575b5061067361066d60066102ca565b916102ca565b1461035e565b34916106a7602061069161068c5f61022c565b610245565b63bc7899e29061069f61002e565b938492610251565b825281806106b760048201610292565b03915afa938415610b0a576106e36106dd610713966106ea945f91610adc575b506100cc565b916100cc565b1015610424565b60206106fd6106f85f61022c565b610245565b637150d8ae9061070b61002e565b958692610251565b8252818061072360048201610292565b03915afa928315610ad75761076e93610745915f91610aa9575b50600161047a565b60206107586107535f61022c565b610245565b631385a6f29061076661002e565b958692610251565b8252818061077e60048201610292565b03915afa928315610aa4576107c9936107a0915f91610a76575b50600261047a565b60206107b36107ae5f61022c565b610245565b6366fafd38906107c161002e565b958692610251565b825281806107d960048201610292565b03915afa928315610a7157610824936107fb915f91610a43575b50600361047a565b602061080e6108095f61022c565b610245565b6342ecd2fb9061081c61002e565b958692610251565b8252818061083460048201610292565b03915afa928315610a3e5761087f93610856915f91610a10575b50600461047a565b60206108696108645f61022c565b610245565b63f18b59d99061087761002e565b958692610251565b8252818061088f60048201610292565b03915afa928315610a0b576108da936108b1915f916109dd575b50600d6104cf565b60206108c46108bf5f61022c565b610245565b63bc7899e2906108d261002e565b958692610251565b825281806108ea60048201610292565b03915afa9283156109d8576109659461093761094e9361091a61095e97610947955f916109aa575b50600e6104cf565b6109258360056104cf565b6109308660066104cf565b6007610507565b610941600161052a565b9061055a565b60086104cf565b610958600161052a565b9061055a565b60096104cf565b61099f6109986109886109786008610596565b6109826009610596565b9061055a565b61099260026105a6565b906105d6565b600a6104cf565b6109a85f610bab565b565b6109cb915060203d81116109d1575b6109c38183610052565b810190610387565b5f610912565b503d6109b9565b610297565b6109fe915060203d8111610a04575b6109f68183610052565b810190610387565b5f6108a9565b503d6109ec565b610297565b610a31915060203d8111610a37575b610a298183610052565b81019061044d565b5f61084e565b503d610a1f565b610297565b610a64915060203d8111610a6a575b610a5c8183610052565b81019061044d565b5f6107f3565b503d610a52565b610297565b610a97915060203d8111610a9d575b610a8f8183610052565b81019061044d565b5f610798565b503d610a85565b610297565b610aca915060203d8111610ad0575b610ac28183610052565b81019061044d565b5f61073d565b503d610ab8565b610297565b610afd915060203d8111610b03575b610af58183610052565b810190610387565b5f6106d7565b503d610aeb565b610297565b610b30915060203d8111610b36575b610b288183610052565b810190610274565b5f61065f565b503d610b1e565b610297565b60a01b90565b90610b5760ff60a01b91610b42565b9181191691161790565b60081115610b6b57565b6102a7565b90610b7a82610b61565b565b610b8590610b70565b90565b90565b90610ba0610b9b610ba792610b7c565b610b88565b8254610b48565b9055565b610bb5905f610b8b565b610bd3610bcc42610bc6600d610596565b9061055a565b600c6104cf565b56fe6102a06040526004361015610014575b61118d565b61001e5f356101bd565b806302fdcd47146101b85780630dbe671f146101b35780631303a484146101ae5780631385a6f2146101a95780632b8786a7146101a45780632c47e0591461019f57806336cc11011461019a5780634018fe3a1461019557806342ecd2fb146101905780634552b3301461018b5780634df7e3d01461018657806366fafd381461018157806368925f981461017c5780636be0b145146101775780637150d8ae1461017257806380b6f18a1461016d5780638a3d7b8714610168578063930fc21614610163578063a51186be1461015e578063ada006c414610159578063afe0104314610154578063bc7899e21461014f578063cb1029411461014a578063d1b92e4314610145578063d5dc79df146101405763f18b59d90361000f57611158565b611114565b6110df565b61109b565b611044565b611000565b610f28565b610dd0565b610d32565b610ce0565b61098c565b610957565b610915565b61089a565b6107cd565b610789565b610747565b6106f4565b6106b0565b61066e565b610432565b6103fd565b6103b9565b61030b565b610279565b6101e5565b60e01c90565b60405190565b5f80fd5b5f80fd5b5f9103126101db57565b6101cd565b5f0190565b34610213576101f53660046101d1565b6101fd6113ac565b6102056101c3565b8061020f816101e0565b0390f35b6101c9565b1c90565b90565b61022f9060086102349302610218565b61021c565b90565b90610242915461021f565b90565b61025160085f90610237565b90565b90565b61026090610254565b9052565b9190610277905f60208501940190610257565b565b346102a9576102893660046101d1565b6102a5610294610245565b61029c6101c3565b91829182610264565b0390f35b6101c9565b90565b6102c19060086102c69302610218565b6102ae565b90565b906102d491546102b1565b90565b6102e360075f906102c9565b90565b90565b6102f2906102e6565b9052565b9190610309905f602085019401906102e9565b565b3461033b5761031b3660046101d1565b6103376103266102d7565b61032e6101c3565b918291826102f6565b0390f35b6101c9565b60018060a01b031690565b61035b9060086103609302610218565b610340565b90565b9061036e915461034b565b90565b61037d60025f90610363565b90565b60018060a01b031690565b61039490610380565b90565b6103a09061038b565b9052565b91906103b7905f60208501940190610397565b565b346103e9576103c93660046101d1565b6103e56103d4610371565b6103dc6101c3565b918291826103a4565b0390f35b6101c9565b6103fa600a5f90610237565b90565b3461042d5761040d3660046101d1565b6104296104186103ee565b6104206101c3565b91829182610264565b0390f35b6101c9565b34610462576104423660046101d1565b61045e61044d611586565b6104556101c3565b918291826102f6565b0390f35b6101c9565b5f80fd5b5f80fd5b601f801991011690565b634e487b7160e01b5f52604160045260245ffd5b906104979061046f565b810190811067ffffffffffffffff8211176104b157604052565b610479565b906104c96104c26101c3565b928361048d565b565b67ffffffffffffffff81116104e35760208091020190565b610479565b5f80fd5b67ffffffffffffffff81116105045760208091020190565b610479565b610512816102e6565b0361051957565b5f80fd5b9050359061052a82610509565b565b9092919261054161053c826104ec565b6104b6565b938185526020808601920283019281841161057e57915b8383106105655750505050565b60208091610573848661051d565b815201920191610558565b6104e8565b9080601f830112156105a15781602061059e9335910161052c565b90565b61046b565b9291906105ba6105b5826104cb565b6104b6565b93818552602080860192028101918383116106115781905b8382106105e0575050505050565b813567ffffffffffffffff811161060c576020916106018784938701610583565b8152019101906105d2565b61046b565b6104e8565b9080601f8301121561063457816020610631933591016105a6565b90565b61046b565b90602082820312610669575f82013567ffffffffffffffff8111610664576106619201610616565b90565b610467565b6101cd565b3461069c57610686610681366004610639565b611d17565b61068e6101c3565b80610698816101e0565b0390f35b6101c9565b6106ad600c5f90610237565b90565b346106e0576106c03660046101d1565b6106dc6106cb6106a1565b6106d36101c3565b91829182610264565b0390f35b6101c9565b6106f160045f90610363565b90565b34610724576107043660046101d1565b61072061070f6106e5565b6107176101c3565b918291826103a4565b0390f35b6101c9565b906020828203126107425761073f915f0161051d565b90565b6101cd565b346107755761075f61075a366004610729565b611df6565b6107676101c3565b80610771816101e0565b0390f35b6101c9565b61078660095f90610237565b90565b346107b9576107993660046101d1565b6107b56107a461077a565b6107ac6101c3565b91829182610264565b0390f35b6101c9565b6107ca60035f90610363565b90565b346107fd576107dd3660046101d1565b6107f96107e86107be565b6107f06101c3565b918291826103a4565b0390f35b6101c9565b60018060a01b031690565b61081d9060086108229302610218565b610802565b90565b90610830915461080d565b90565b61083e5f5f90610825565b90565b90565b61085861085361085d92610380565b610841565b610380565b90565b61086990610844565b90565b61087590610860565b90565b6108819061086c565b9052565b9190610898905f60208501940190610878565b565b346108ca576108aa3660046101d1565b6108c66108b5610833565b6108bd6101c3565b91829182610885565b0390f35b6101c9565b151590565b6108dd816108cf565b036108e457565b5f80fd5b905035906108f5826108d4565b565b906020828203126109105761090d915f016108e8565b90565b6101cd565b346109435761092d6109283660046108f7565b612154565b6109356101c3565b8061093f816101e0565b0390f35b6101c9565b61095460015f90610363565b90565b34610987576109673660046101d1565b610983610972610948565b61097a6101c3565b918291826103a4565b0390f35b6101c9565b346109ba5761099c3660046101d1565b6109a4612207565b6109ac6101c3565b806109b6816101e0565b0390f35b6101c9565b67ffffffffffffffff81116109d45760200290565b610479565b5f80fd5b67ffffffffffffffff81116109fb576109f760209161046f565b0190565b610479565b90825f939282370152565b90929192610a20610a1b826109dd565b6104b6565b93818552602085019082840111610a3c57610a3a92610a00565b565b6109d9565b9080601f83011215610a5f57816020610a5c93359101610a0b565b90565b61046b565b929190610a78610a73826109bf565b6104b6565b936020859202810191838311610aca5781905b838210610a99575050505050565b813567ffffffffffffffff8111610ac557602091610aba8784938701610a41565b815201910190610a8b565b61046b565b6104e8565b9080601f83011215610aea57610ae791600290610a64565b90565b61046b565b610af881610254565b03610aff57565b5f80fd5b90503590610b1082610aef565b565b5f80fd5b909182601f83011215610b505781359167ffffffffffffffff8311610b4b576020019260208302840111610b4657565b6104e8565b610b12565b61046b565b909182601f83011215610b8f5781359167ffffffffffffffff8311610b8a576020019260208302840111610b8557565b6104e8565b610b12565b61046b565b91909161014081840312610cdb575f81013567ffffffffffffffff8111610cd65783610bc1918301610acf565b92610bcf8160208401610b03565b92604083013567ffffffffffffffff8111610cd15782610bf0918501610b16565b929093606081013567ffffffffffffffff8111610ccc5782610c13918301610b55565b929093610c238260808501610b03565b92610c318360a0830161051d565b9260c082013567ffffffffffffffff8111610cc75781610c52918401610616565b9260e083013567ffffffffffffffff8111610cc25782610c73918501610616565b9261010081013567ffffffffffffffff8111610cbd5783610c95918301610616565b9261012082013567ffffffffffffffff8111610cb857610cb59201610616565b90565b610467565b610467565b610467565b610467565b610467565b610467565b610467565b6101cd565b34610d1e57610d08610cf3366004610b94565b9a9990999891989792979693969594956132db565b610d106101c3565b80610d1a816101e0565b0390f35b6101c9565b610d2f60055f90610237565b90565b34610d6257610d423660046101d1565b610d5e610d4d610d23565b610d556101c3565b91829182610264565b0390f35b6101c9565b90602082820312610d8057610d7d915f01610b03565b90565b6101cd565b610d99610d94610d9e92610254565b610841565b610254565b90565b90610dab90610d85565b5f5260205260405f2090565b610dcd90610dc8600b915f92610da1565b6102c9565b90565b34610e0057610dfc610deb610de6366004610d67565b610db7565b610df36101c3565b918291826102f6565b0390f35b6101c9565b9061012082820312610f23575f82013567ffffffffffffffff8111610f1e5781610e30918401610acf565b92610e3e8260208501610b03565b92604081013567ffffffffffffffff8111610f195783610e5f918301610b16565b929093606083013567ffffffffffffffff8111610f145781610e82918501610b55565b929093610e928360808301610b03565b92610ea08160a0840161051d565b9260c083013567ffffffffffffffff8111610f0f5782610ec1918501610616565b9260e081013567ffffffffffffffff8111610f0a5783610ee2918301610616565b9261010082013567ffffffffffffffff8111610f0557610f029201610616565b90565b610467565b610467565b610467565b610467565b610467565b610467565b6101cd565b34610f6357610f4d610f3b366004610e05565b99989098979197969296959395613888565b610f556101c3565b80610f5f816101e0565b0390f35b6101c9565b60ff1690565b610f7e906008610f839302610218565b610f68565b90565b90610f919154610f6e565b90565b610fa05f601490610f86565b90565b634e487b7160e01b5f52602160045260245ffd5b60081115610fc157565b610fa3565b90610fd082610fb7565b565b610fdb90610fc6565b90565b610fe790610fd2565b9052565b9190610ffe905f60208501940190610fde565b565b34611030576110103660046101d1565b61102c61101b610f94565b6110236101c3565b91829182610feb565b0390f35b6101c9565b611041600e5f90610237565b90565b34611074576110543660046101d1565b61107061105f611035565b6110676101c3565b91829182610264565b0390f35b6101c9565b611082906108cf565b9052565b9190611099905f60208501940190611079565b565b346110cb576110ab3660046101d1565b6110c76110b66138a1565b6110be6101c3565b91829182611086565b0390f35b6101c9565b6110dc60065f90610237565b90565b3461110f576110ef3660046101d1565b61110b6110fa6110d0565b6111026101c3565b91829182610264565b0390f35b6101c9565b346111445761114061112f61112a366004610d67565b6138cb565b6111376101c3565b918291826102f6565b0390f35b6101c9565b611155600d5f90610237565b90565b34611188576111683660046101d1565b611184611173611149565b61117b6101c3565b91829182610264565b0390f35b6101c9565b5f80fd5b60a01c90565b6111a36111a891611191565b610f68565b90565b6111b59054611197565b90565b60209181520190565b60207f2063616e20626520636f6d706c65746564000000000000000000000000000000917f4e6f7420696e20612073746174652077686572652074686520646973707574655f8201520152565b61121b60316040926111b8565b611224816111c1565b0190565b61123d9060208101905f81830391015261120e565b90565b1561124757565b61124f6101c3565b62461bcd60e51b81528061126560048201611228565b0390fd5b5f1c90565b61127a61127f91611269565b610340565b90565b61128c905461126e565b90565b5f7f54696d656f757420686173206e6f742070617373656400000000000000000000910152565b6112c360166020926111b8565b6112cc8161128f565b0190565b6112e59060208101905f8183039101526112b6565b90565b156112ef57565b6112f76101c3565b62461bcd60e51b81528061130d600482016112d0565b0390fd5b61131a90610844565b90565b61132690611311565b90565b61133290610860565b90565b61134161134691611269565b61021c565b90565b6113539054611335565b90565b61135e6101c3565b3d5f823e3d90fd5b61136f90610860565b90565b61137e61138391611269565b610802565b90565b6113909054611372565b90565b5f80fd5b60e01b90565b5f9103126113a757565b6101cd565b6113b55f6111ab565b6113c76113c15f610fc6565b91610fc6565b14801561155a575b6113d890611240565b6113e15f6111ab565b6113f46113ee6005610fc6565b91610fc6565b1480611536575b611521575b5f80808061141e6114196114146002611282565b61131d565b611329565b611428600e611349565b90828215611518575bf115611513575f80808061145561145061144b6004611282565b61131d565b611329565b61145e30611366565b319082821561150a575bf1156115055761147f61147a5f611386565b61086c565b63d1fc8cf390803b15611500576114a2915f9161149a6101c3565b938492611397565b82528183816114b3600482016101e0565b03925af180156114fb576114cf575b506114cd6007613938565b565b6114ee905f3d81116114f4575b6114e6818361048d565b81019061139d565b5f6114c2565b503d6114dc565b611356565b611393565b611356565b506108fc611468565b611356565b506108fc611431565b61153161152c6138a1565b6112e8565b611400565b503361155361154d6115486001611282565b61038b565b9161038b565b14156113fb565b506113d86115675f6111ab565b61157a6115746005610fc6565b91610fc6565b1490506113cf565b5f90565b61158e611582565b506115a161159c600a611349565b6138cb565b90565b5f7f556e65787065637465642073656e646572000000000000000000000000000000910152565b6115d860116020926111b8565b6115e1816115a4565b0190565b6115fa9060208101905f8183039101526115cb565b90565b1561160457565b61160c6101c3565b62461bcd60e51b815280611622600482016115e5565b0390fd5b60207f63757272656e7420737461746500000000000000000000000000000000000000917f43616e6e6f742072756e20746869732066756e6374696f6e20696e20746865205f8201520152565b611680602d6040926111b8565b61168981611626565b0190565b6116a29060208101905f818303910152611673565b90565b156116ac57565b6116b46101c3565b62461bcd60e51b8152806116ca6004820161168d565b0390fd5b6117249061171f6116df6002611282565b6116fe6004916116f86116f2339261038b565b9161038b565b146115fd565b61171961171361170d5f6111ab565b92610fc6565b91610fc6565b146116a5565b611b75565b565b90565b61173d61173861174292611726565b610841565b610254565b90565b90611757611752836104ec565b6104b6565b918252565b369037565b9061178661176e83611745565b9260208061177c86936104ec565b920191039061175c565b565b60200190565b5190565b634e487b7160e01b5f52603260045260245ffd5b5190565b906117b4826117a6565b8110156117c5576020809102010190565b611792565b90565b6117e16117dc6117e6926117ca565b610841565b610254565b90565b906117f3906102e6565b9052565b67ffffffffffffffff811161180f5760208091020190565b610479565b90611826611821836117f7565b6104b6565b918252565b369037565b9061185561183d83611814565b9260208061184b86936117f7565b920191039061182b565b565b634e487b7160e01b5f52601160045260245ffd5b61187a61188091939293610254565b92610254565b820391821161188b57565b611857565b5190565b9061189e82611890565b8110156118af576020809102010190565b611792565b906118be90610254565b9052565b90565b90565b6118dc6118d76118e1926118c5565b610841565b610254565b90565b6118f06118f591611269565b6102ae565b90565b61190290546118e4565b90565b90505190611912826108d4565b565b9060208282031261192d5761192a915f01611905565b90565b6101cd565b61193b906102e6565b9052565b60209181520190565b60200190565b61195790610254565b9052565b906119688160209361194e565b0190565b60200190565b9061198f61198961198284611890565b809361193f565b92611948565b905f5b81811061199f5750505090565b9091926119b86119b2600192865161195b565b9461196c565b9101919091611992565b60209181520190565b60200190565b6119da906102e6565b9052565b906119eb816020936119d1565b0190565b60200190565b90611a12611a0c611a05846117a6565b80936119c2565b926119cb565b905f5b818110611a225750505090565b909192611a3b611a3560019286516119de565b946119ef565b9101919091611a15565b5190565b60209181520190565b60200190565b60209181520190565b90611a7e611a78611a71846117a6565b8093611a58565b926119cb565b905f5b818110611a8e5750505090565b909192611aa7611aa160019286516119de565b946119ef565b9101919091611a81565b90611abb91611a61565b90565b60200190565b90611ad8611ad183611a45565b8092611a49565b9081611ae960208302840194611a52565b925f915b838310611afc57505050505090565b90919293946020611b1e611b1883856001950387528951611ab1565b97611abe565b9301930191939290611aed565b92611b56611b6492611b729694611b4960808801925f890190611932565b8682036020880152611972565b9084820360408601526119f5565b916060818403910152611ac4565b90565b6020611b89611b846001611729565b611761565b91611be9611bb0611bbe611b9d6001611729565b611ba56101c3565b928391878301610264565b86820181038252038261048d565b611bd0611bca8261178e565b91611788565b20611be485611bde5f6117cd565b906117aa565b6117e9565b611bfb611bf66001611729565b611830565b90611c34611c1c611c0c6006611349565b611c166005611349565b9061186b565b611c2f84611c295f6117cd565b90611894565b6118b4565b611ca4611c5473__$799056f8235f73a5ce5d7545f57b4b862a$__6118c2565b91611caf6325d1faf691611c8e611c89600b611c83611c736006611349565b611c7d60026118c8565b9061186b565b90610da1565b6118f8565b9597611c986101c3565b98899788968796611397565b865260048601611b2b565b03915af4908115611d12575f91611ce4575b505f14611cd557611cd26005613938565b5b565b611cdf6006613938565b611cd3565b611d05915060203d8111611d0b575b611cfd818361048d565b810190611914565b5f611cc1565b503d611cf3565b611356565b611d20906116ce565b565b611d7790611d72611d336001611282565b611d515f91611d4b611d45339261038b565b9161038b565b146115fd565b611d6c611d66611d605f6111ab565b92610fc6565b91610fc6565b146116a5565b611dcc565b565b5f1b90565b90611d8a5f1991611d79565b9181191691161790565b611d9d906102e6565b90565b611da990611269565b90565b90611dc1611dbc611dc892611d94565b611da0565b8254611d7e565b9055565b611dea90611de5600b611ddf600a611349565b90610da1565b611dac565b611df46001613938565b565b611dff90611d22565b565b611e5790611e52611e126002611282565b611e31600191611e2b611e25339261038b565b9161038b565b146115fd565b611e4c611e46611e405f6111ab565b92610fc6565b91610fc6565b146116a5565b611f56565b565b90565b90611e71611e6c611e7892610d85565b611e59565b8254611d7e565b9055565b611e8b611e9191939293610254565b92610254565b8201809211611e9c57565b611857565b634e487b7160e01b5f52601260045260245ffd5b611ec1611ec791610254565b91610254565b908115611ed2570490565b611ea1565b60207f6400000000000000000000000000000000000000000000000000000000000000917f416e20696e76616c696420737461746520686173206265656e207265616368655f8201520152565b611f3160216040926111b8565b611f3a81611ed7565b0190565b611f539060208101905f818303910152611f24565b90565b5f1461213b57611f83611f7c611f6c600a611349565b611f766001611729565b90611e7c565b6008611e5c565b5b611f8e6008611349565b611fa9611fa3611f9e6009611349565b610254565b91610254565b036120f657611fc2611fbb6008611349565b600a611e5c565b611fdf611fcf6005611349565b611fd96001611729565b90611e7c565b611ffa611ff4611fef600a611349565b610254565b91610254565b10806120c9575b5f14612013576120116002613938565b565b61201d600a611349565b61204b6120456120406120306005611349565b61203a6001611729565b90611e7c565b610254565b91610254565b145f1461205e5761205c6003613938565b565b612068600a611349565b61209661209061208b61207b6006611349565b6120856001611729565b90611e7c565b610254565b91610254565b146120bd576120a36101c3565b62461bcd60e51b8152806120b960048201611f3e565b0390fd5b6120c76004613938565b565b506120d4600a611349565b6120ef6120e96120e46006611349565b610254565b91610254565b1115612001565b6121306121296121196121096008611349565b6121136009611349565b90611e7c565b61212360026118c8565b90611eb5565b600a611e5c565b6121395f613938565b565b61214f612148600a611349565b6009611e5c565b611f84565b61215d90611e01565b565b60207f2063616e2062652063616e63656c6c6564000000000000000000000000000000917f4e6f7420696e20612073746174652077686572652074686520646973707574655f8201520152565b6121b960316040926111b8565b6121c28161215f565b0190565b6121db9060208101905f8183039101526121ac565b90565b156121e557565b6121ed6101c3565b62461bcd60e51b815280612203600482016121c6565b0390fd5b6122105f6111ab565b61222361221d6006610fc6565b91610fc6565b14801561243a575b8015612417575b80156123f4575b80156123cc575b612249906121de565b6122525f6111ab565b61226561225f6006610fc6565b91610fc6565b1415806123a8575b612393575b5f80808061229061228b6122866002611282565b61131d565b611329565b61229a600e611349565b9082821561238a575bf115612385575f8080806122c76122c26122bd6003611282565b61131d565b611329565b6122d030611366565b319082821561237c575bf115612377576122f16122ec5f611386565b61086c565b63d1fc8cf390803b1561237257612314915f9161230c6101c3565b938492611397565b8252818381612325600482016101e0565b03925af1801561236d57612341575b5061233f6007613938565b565b612360905f3d8111612366575b612358818361048d565b81019061139d565b5f612334565b503d61234e565b611356565b611393565b611356565b506108fc6122da565b611356565b506108fc6122a3565b6123a361239e6138a1565b6112e8565b612272565b50336123c56123bf6123ba6002611282565b61038b565b9161038b565b141561226d565b506122496123d95f6111ab565b6123ec6123e66004610fc6565b91610fc6565b149050612240565b506123fe5f6111ab565b61241161240b6003610fc6565b91610fc6565b14612239565b506124215f6111ab565b61243461242e6002610fc6565b91610fc6565b14612232565b506124445f6111ab565b6124576124516001610fc6565b91610fc6565b1461222b565b906124be9b9a9998979695949392916124b96124796002611282565b61249860029161249261248c339261038b565b9161038b565b146115fd565b6124b36124ad6124a75f6111ab565b92610fc6565b91610fc6565b146116a5565b612af8565b565b5090565b5090565b60607f3129000000000000000000000000000000000000000000000000000000000000917f56616c7565732720616e6420676174652773206c656e67746820646f206e6f745f8201527f206d617463682074686520726571756972656d656e7473202876616c7565732060208201527f6c656e677468206d757374206265203d3d20676174652e6c656e677468202d2060408201520152565b61256e60626080926111b8565b612577816124c8565b0190565b6125909060208101905f818303910152612561565b90565b1561259a57565b6125a26101c3565b62461bcd60e51b8152806125b86004820161257b565b0390fd5b90565b90825f9392825e0152565b909291926125df6125da826109dd565b6104b6565b938185526020850190828401116125fb576125f9926125bf565b565b6109d9565b9080601f8301121561261e5781602061261b935191016125ca565b90565b61046b565b929190612637612632826109bf565b6104b6565b9360208592028101918383116126895781905b838210612658575050505050565b815167ffffffffffffffff8111612684576020916126798784938701612600565b81520191019061264a565b61046b565b6104e8565b9080601f830112156126a9576126a691600290612623565b90565b61046b565b906020828203126126de575f82015167ffffffffffffffff81116126d9576126d6920161268e565b90565b610467565b6101cd565b50600290565b905090565b90565b60209181520190565b612719612722602093612727936127108161178e565b938480936126f1565b958691016125bf565b61046f565b0190565b90612735916126fa565b90565b60200190565b9061275261274b836126e3565b80926126e9565b9081612763602083028401946126ee565b925f915b83831061277657505050505090565b909192939460206127986127928385600195038752895161272b565b97612738565b9301930191939290612767565b916127c8926127bb60408201935f830190611932565b602081840391015261273e565b90565b909291926127e06127db826117f7565b6104b6565b938185526020808601920283019281841161281d57915b8383106128045750505050565b602080916128128486610b03565b8152019201916127f7565b6104e8565b61282d9136916127cb565b90565b600161283c9101610254565b90565b919081101561284f576020020190565b611792565b3561285e81610aef565b90565b61286b90516102e6565b90565b61287790610254565b5f1981146128855760010190565b611857565b90565b906020828203126128bd575f82015167ffffffffffffffff81116128b8576128b59201612600565b90565b610467565b6101cd565b5f80fd5b9037565b9091826128d69161193f565b9160018060fb1b0381116128f957829160206128f592029384916128c6565b0190565b6128c2565b60209181520190565b90565b91906129248161291d81612929956126f1565b8095610a00565b61046f565b0190565b90612938929161290a565b90565b5f80fd5b5f80fd5b5f80fd5b903560016020038236030381121561298857016020813591019167ffffffffffffffff821161298357600182023603831361297e57565b61293f565b61293b565b612943565b60200190565b918161299e916128fe565b90816129af60208302840194612907565b92835f925b8484106129c45750505050505090565b90919293949560206129f06129ea83856001950388526129e48b88612947565b9061292d565b9861298d565b9401940192949391906129b4565b612a0790610254565b9052565b959492612a4394612a2d612a3b9360409560608b01918b83035f8d01526128ca565b9188830360208a0152612993565b9401906129fe565b565b90612a4f826126e3565b811015612a5d576020020190565b611792565b1b90565b612a80612a7b612a758361178e565b92611788565b612861565b9060208110612a8e575b5090565b612aa0905f1990602003600802612a62565b165f612a8a565b9193612ade612af59694612ad4612ae89497612aca60a08801995f8901906129fe565b6020870190611932565b6040850190611932565b6060830190611932565b6080818403910152611ac4565b90565b9692909a959793919994989961020052610260526102805261012052610140526101605260a052612b6b612b336102005161026051906124c0565b612b65612b5f612b5a612b4a6102805189906124c4565b612b546001611729565b90611e7c565b610254565b91610254565b14612593565b5f612b8973__$ea76eb4ae175fd61ecff120f228b60e4a9$__6125bc565b9163ffeece3192612bb6612b9d60076118f8565b9294612bc1612baa6101c3565b96879586948594611397565b8452600484016127a5565b03915af49081156132d6575f916132b4575b5091612be36102805182906139e8565b61024052612bf8610200516102605190613a84565b61010052612c15612c10610200516102605190612822565b613b5a565b60c052612c2b612c2660c051611890565b611830565b61022052612c42612c3d60c051611890565b611761565b61018052612c4f5f6117cd565b608052612c7c612c77612c666102805184906124c4565b612c7160c051611890565b9061186b565b611830565b60e052612ca9612ca4612c936102805184906124c4565b612c9e60c051611890565b9061186b565b611761565b6101a052612cb65f6117cd565b6101e052612cc46001611729565b6101c0525b6101c051612cef612ce9612ce46102005161026051906124c0565b610254565b91610254565b1015612e5257612d0560c0516101c05190613c98565b5f14612dac57612d42612d2b612d2661020051610260516101c0519161283f565b612854565b612d3d61022051916080519092611894565b6118b4565b612d88612d71612d6c61024051612d666101c051612d606001611729565b9061186b565b906117aa565b612861565b612d83610180519160805190926117aa565b6117e9565b612d9360805161286e565b6080525b612da36101c051612830565b6101c052612cc9565b612df6612ddf612dcf612dca61020051610260516101c0519161283f565b612854565b612dd96005611349565b9061186b565b612df160e051916101e0519092611894565b6118b4565b612e3d612e25612e2061024051612e1a6101c051612e146001611729565b9061186b565b906117aa565b612861565b612e386101a051916101e05190926117aa565b6117e9565b612e496101e05161286e565b6101e052612d97565b5f90612e7173__$2a458dd7f2b26c24bcbff13d0c3946cef9$__61288a565b612ea163a8ef294f612eac6102005194610260519761028051919091612e956101c3565b998a9889978897611397565b875260048701612a0b565b03915af49081156132af575f9161328d575b5091612ed2612ecd6001611729565b611830565b612eee85612ee983612ee35f6117cd565b90611894565b6118b4565b612f02612efd600b8790610da1565b6118f8565b612f17612f11610120516102e6565b916102e6565b141590816131cd575b50918261310d575b505080613042575b9182612f5b575b50505f14612f4c57612f496005613938565b5b565b612f566006613938565b612f4a565b6020919250612f7d73__$799056f8235f73a5ce5d7545f57b4b862a$__6118c2565b612fea6320736034612ff5612fc4612fbf612fa287612f9c6005611349565b9061186b565b96612fb9600b91612fb36001611729565b9061186b565b90610da1565b6118f8565b96612fd26101205191612a66565b60a05191612fde6101c3565b998a9889978897611397565b875260048701612aa7565b03915af490811561303d575f9161300f575b505f80612f37565b613030915060203d8111613036575b613028818361048d565b810190611914565b5f613007565b503d61301e565b611356565b5061306073__$799056f8235f73a5ce5d7545f57b4b862a$__6118c2565b60206325d1faf69161308f61308a600b6130848861307e6001611729565b9061186b565b90610da1565b6118f8565b906130b760e051946130c26101a05161016051906130ab6101c3565b98899788968796611397565b865260048601611b2b565b03915af4908115613108575f916130da575b50612f30565b6130fb915060203d8111613101575b6130f3818361048d565b810190611914565b5f6130d4565b503d6130e9565b611356565b602091925061312f73__$799056f8235f73a5ce5d7545f57b4b862a$__6118c2565b61317561315461314e6325d1faf6946131486001611729565b90612a45565b51612a66565b926131806102205196610180516131696101c3565b98899788968796611397565b865260048601611b2b565b03915af49081156131c8575f9161319a575b505f80612f28565b6131bb915060203d81116131c1575b6131b3818361048d565b810190611914565b5f613192565b503d6131a9565b611356565b905060206131ee73__$799056f8235f73a5ce5d7545f57b4b862a$__6118c2565b916325d1faf69261323661321461320e886132085f6117cd565b90612a45565b51612a66565b929461324161010051610140519061322a6101c3565b98899788968796611397565b865260048601611b2b565b03915af4908115613288575f9161325a575b505f612f20565b61327b915060203d8111613281575b613273818361048d565b810190611914565b5f613253565b503d613269565b611356565b6132a991503d805f833e6132a1818361048d565b81019061288d565b5f612ebe565b611356565b6132d091503d805f833e6132c8818361048d565b8101906126ae565b5f612bd3565b611356565b906132ef9b9a99989796959493929161245d565b565b906133519a99989796959493929161334c61330c6002611282565b61332b60039161332561331f339261038b565b9161038b565b146115fd565b61334661334061333a5f6111ab565b92610fc6565b91610fc6565b146116a5565b613420565b565b5f80fd5b5f80fd5b9093929384831161337b578411613376576020820201920390565b613357565b613353565b93906133ad906133c996946133bb946133a060808901935f8a0190611932565b87830360208901526128ca565b9084820360408601526119f5565b916060818403910152611ac4565b90565b5f9052565b90926134109061340661341d96946133f060a08601975f8701906129fe565b6133fc602086016133cc565b6040850190611932565b6060830190611932565b6080818403910152611ac4565b90565b99969790999895949893919361346f8a61346961346361345e61344e6134478b8b906124c0565b94896124c4565b6134586001611729565b90611e7c565b610254565b91610254565b14612593565b5f61348d73__$ea76eb4ae175fd61ecff120f228b60e4a9$__6125bc565b9163ffeece31926134ba6134a160076118f8565b92946134c56134ae6101c3565b96879586948594611397565b8452600484016127a5565b03915af4908115613883575f91613861575b50915f8a6134f873__$2a458dd7f2b26c24bcbff13d0c3946cef9$__61288a565b61351f63a8ef294f61352a8a948a9c889190916135136101c3565b9e8f9889978897611397565b875260048701612a0b565b03915af4801561385c5789965f9161383a575b50998b6135a86135a261359d61359861358f61356161355c6001611729565b611830565b9661357e876135798a6135735f6117cd565b90611894565b6118b4565b6135898d8d90613a84565b986139e8565b9b94600b610da1565b6118f8565b6102e6565b916102e6565b14159283613780575b50505094856136a8575b505050505093846135ed575b505050505f146135de576135db6005613938565b5b565b6135e86006613938565b6135dc565b602093945061364e9061365961361673__$799056f8235f73a5ce5d7545f57b4b862a$__6118c2565b9361363a61363363207360349461362d6005611349565b9061186b565b9698612a66565b6136426101c3565b98899788968796611397565b8652600486016133d1565b03915af49081156136a3575f91613675575b505f8080806135c7565b613696915060203d811161369c575b61368e818361048d565b810190611914565b5f61366b565b503d613684565b611356565b6020949550906137306137259261370c6136d573__$799056f8235f73a5ce5d7545f57b4b862a$__6118c2565b956136f86136f26325d1faf6966136ec6001611729565b90612a45565b51612a66565b97906137046001611729565b90809261335b565b91909890916137196101c3565b998a9889978897611397565b875260048701613380565b03915af490811561377b575f9161374d575b505f808080806135bb565b61376e915060203d8111613774575b613766818361048d565b810190611914565b5f613742565b503d61375c565b611356565b60209293506137e16137a573__$799056f8235f73a5ce5d7545f57b4b862a$__6118c2565b916137ec6325d1faf6916137cb6137c58a6137bf5f6117cd565b90612a45565b51612a66565b95976137d56101c3565b98899788968796611397565b865260048601611b2b565b03915af4908115613835575f91613807575b505f80806135b1565b613828915060203d811161382e575b613820818361048d565b810190611914565b5f6137fe565b503d613816565b611356565b61385691503d805f833e61384e818361048d565b81019061288d565b5f61353d565b611356565b61387d91503d805f833e613875818361048d565b8101906126ae565b5f6134d7565b611356565b9061389b9a9998979695949392916132f1565b565b5f90565b6138a961389d565b50426138c66138c06138bb600c611349565b610254565b91610254565b101590565b6138e26138e7916138da611582565b50600b610da1565b6118f8565b90565b60a01b90565b906138ff60ff60a01b916138ea565b9181191691161790565b61391290610fc6565b90565b90565b9061392d61392861393492613909565b613915565b82546138f0565b9055565b613942905f613918565b61396061395942613953600d611349565b90611e7c565b600c611e5c565b565b606090565b5f80fd5b5f80fd5b5f80fd5b9035906001602003813603038212156139b5570180359067ffffffffffffffff82116139b0576020019160018202360383136139ab57565b61396f565b61396b565b613967565b908210156139d55760206139d19202810190613973565b9091565b611792565b6139e5913691610a0b565b90565b906139f1613962565b50613a05613a008383906124c4565b611761565b91613a0f5f6117cd565b5b80613a2d613a27613a228587906124c4565b610254565b91610254565b1015613a7e57613a7990613a74613a4f613a49858785916139ba565b906139da565b613a61613a5b8261178e565b91611788565b20613a6f87918490926117aa565b6117e9565b612830565b613a10565b50505090565b90613a8d613962565b50613aa1613a9c8383906124c0565b611761565b91613aab5f6117cd565b5b80613ac9613ac3613abe8587906124c0565b610254565b91610254565b1015613b4257613b3d90613b38613b04613b13613af0613aeb8789879161283f565b612854565b613af86101c3565b92839160208301610264565b6020820181038252038261048d565b613b25613b1f8261178e565b91611788565b20613b3387918490926117aa565b6117e9565b612830565b613aac565b50505090565b606090565b613b579051610254565b90565b90613b63613b48565b50613b88613b83613b7384611890565b613b7d6001611729565b9061186b565b611830565b613b915f6117cd565b92613b9c6001611729565b5b80613bb8613bb2613bad85611890565b610254565b91610254565b1015613c2c57613bd1613bcc838390611894565b613b4d565b613bec613be6613be16005611349565b610254565b91610254565b1115613c01575b613bfc90612830565b613b9d565b93613c24613bfc91613c1f87613c1a8791849092611894565b6118b4565b61286e565b949050613bf3565b5050613c3783611830565b91613c415f6117cd565b5b80613c55613c4f87610254565b91610254565b1015613c9157613c8c90613c87613c75613c70868490611894565b613b4d565b613c828791849092611894565b6118b4565b612830565b613c42565b5092505090565b90613ca161389d565b50613cab5f6117cd565b5b80613cc7613cc1613cbc86611890565b610254565b91610254565b1015613d0d57613ce0613cdb848390611894565b613b4d565b613cf2613cec84610254565b91610254565b14613d0557613d0090612830565b613cac565b505050600190565b5050505f9056fea264697066735822122013882283b13c8f53d9ebe8a1575cb41b1c6a49aba3cd139a83374d5da74e81ce64736f6c634300081c0033","linkReferences":{"src/AccumulatorSOX.sol":{"AccumulatorVerifier":[{"start":10258,"length":20},{"start":15163,"length":20},{"start":15390,"length":20},{"start":15597,"length":20},{"start":15788,"length":20},{"start":16852,"length":20},{"start":17043,"length":20},{"start":17251,"length":20}]},"src/CommitmentSOX.sol":{"CommitmentVerifier":[{"start":14151,"length":20},{"start":16459,"length":20}]},"src/EvaluatorSOX.sol":{"CircuitEvaluator":[{"start":14895,"length":20},{"start":16566,"length":20}]}}},"methodIdentifiers":{"a()":"0dbe671f","agreedPrice()":"bc7899e2","b()":"4df7e3d0","buyer()":"7150d8ae","buyerDisputeSponsor()":"66fafd38","buyerResponses(uint256)":"a51186be","cancelDispute()":"80b6f18a","chall()":"2b8786a7","commitment()":"1303a484","completeDispute()":"02fdcd47","currState()":"afe01043","getBuyerResponse(uint256)":"d5dc79df","getLatestBuyerResponse()":"2c47e059","giveOpinion(bool)":"6be0b145","nextTimeoutTime()":"4018fe3a","numBlocks()":"930fc216","numGates()":"d1b92e43","optimisticContract()":"68925f98","respondChallenge(bytes32)":"4552b330","submitCommitment(bytes[2],uint256,uint256[],bytes[],uint256,bytes32,bytes32[][],bytes32[][],bytes32[][],bytes32[][])":"8a3d7b87","submitCommitmentLeft(bytes[2],uint256,uint256[],bytes[],uint256,bytes32,bytes32[][],bytes32[][],bytes32[][])":"ada006c4","submitCommitmentRight(bytes32[][])":"36cc1101","timeoutHasPassed()":"cb102941","timeoutIncrement()":"f18b59d9","vendor()":"1385a6f2","vendorDisputeSponsor()":"42ecd2fb"},"id":21}