{"abi":[{"type":"constructor","inputs":[{"name":"_buyer","type":"address","internalType":"address"},{"name":"_vendor","type":"address","internalType":"address"},{"name":"_agreedPrice","type":"uint256","internalType":"uint256"}],"stateMutability":"payable"},{"type":"function","name":"buyer","inputs":[],"outputs":[{"name":"","type":"address","internalType":"address"}],"stateMutability":"view"},{"type":"function","name":"buyerDisputeSponsor","inputs":[],"outputs":[{"name":"","type":"address","internalType":"address"}],"stateMutability":"view"},{"type":"function","name":"cancelTransaction","inputs":[],"outputs":[],"stateMutability":"nonpayable"},{"type":"function","name":"completeTransaction","inputs":[],"outputs":[],"stateMutability":"nonpayable"},{"type":"function","name":"currState","inputs":[],"outputs":[{"name":"","type":"uint8","internalType":"enum OptimisticSOX.State"}],"stateMutability":"view"},{"type":"function","name":"registerBuyerDisputeSponsor","inputs":[{"name":"_sb","type":"address","internalType":"address"}],"outputs":[],"stateMutability":"payable"},{"type":"function","name":"registerVendorDisputeSponsor","inputs":[{"name":"_sv","type":"address","internalType":"address"}],"outputs":[],"stateMutability":"payable"},{"type":"function","name":"sendBuyerDisputeSponsorFee","inputs":[],"outputs":[],"stateMutability":"payable"},{"type":"function","name":"sendKey","inputs":[{"name":"_key","type":"bytes32","internalType":"bytes32"}],"outputs":[],"stateMutability":"nonpayable"},{"type":"function","name":"sendPayment","inputs":[],"outputs":[],"stateMutability":"payable"},{"type":"function","name":"sendVendorDisputeSponsorFee","inputs":[],"outputs":[],"stateMutability":"payable"},{"type":"function","name":"sponsor","inputs":[],"outputs":[{"name":"","type":"address","internalType":"address"}],"stateMutability":"view"},{"type":"function","name":"timeout","inputs":[],"outputs":[{"name":"","type":"uint256","internalType":"uint256"}],"stateMutability":"view"},{"type":"function","name":"timeoutHasPassed","inputs":[],"outputs":[{"name":"","type":"bool","internalType":"bool"}],"stateMutability":"view"},{"type":"function","name":"vendor","inputs":[],"outputs":[{"name":"","type":"address","internalType":"address"}],"stateMutability":"view"},{"type":"function","name":"vendorDisputeSponsor","inputs":[],"outputs":[{"name":"","type":"address","internalType":"address"}],"stateMutability":"view"}],"bytecode":{"object":"0x608060405261001561000f610129565b9161033a565b61001d61002b565b61173861048e823961173890f35b60405190565b601f801991011690565b634e487b7160e01b5f52604160045260245ffd5b9061005990610031565b810190811060018060401b0382111761007157604052565b61003b565b9061008961008261002b565b928361004f565b565b5f80fd5b60018060a01b031690565b6100a39061008f565b90565b6100af8161009a565b036100b657565b5f80fd5b905051906100c7826100a6565b565b90565b6100d5816100c9565b036100dc57565b5f80fd5b905051906100ed826100cc565b565b90916060828403126101245761012161010a845f85016100ba565b9361011881602086016100ba565b936040016100e0565b90565b61008b565b610147611bc68038038061013c81610076565b9283398101906100ef565b909192565b5f1b90565b9061015d5f199161014c565b9181191691161790565b90565b90565b61018161017c61018692610167565b61016a565b6100c9565b90565b90565b906101a161019c6101a89261016d565b610189565b8254610151565b9055565b90565b6101c36101be6101c8926101ac565b61016a565b6100c9565b90565b6101d560056101af565b90565b60209181520190565b5f7f4e6f7420656e6f756768206d6f6e657920746f20636f76657220666565730000910152565b610215601e6020926101d8565b61021e816101e1565b0190565b6102379060208101905f818303910152610208565b90565b1561024157565b61024961002b565b62461bcd60e51b81528061025f60048201610222565b0390fd5b61027761027261027c926100c9565b61016a565b6100c9565b90565b9061029461028f61029b92610263565b610189565b8254610151565b9055565b906102b060018060a01b039161014c565b9181191691161790565b6102ce6102c96102d39261008f565b61016a565b61008f565b90565b6102df906102ba565b90565b6102eb906102d6565b90565b90565b9061030661030161030d926102e2565b6102ee565b825461029f565b9055565b5f1c90565b90565b61032561032a91610311565b610316565b90565b6103379054610319565b90565b6103a0929161039261039992610352600a600f61018c565b6103763461036f6103696103646101cb565b6100c9565b916100c9565b101561023a565b61038134600761027f565b61038c3360026102f1565b5f6102f1565b60016102f1565b600661027f565b6103b45f6103ae600f61032d565b9061046c565b565b60a01b90565b906103cb60ff60a01b916103b6565b9181191691161790565b634e487b7160e01b5f52602160045260245ffd5b600811156103f357565b6103d5565b90610402826103e9565b565b61040d906103f8565b90565b90565b9061042861042361042f92610404565b610410565b82546103bc565b9055565b634e487b7160e01b5f52601160045260245ffd5b61045661045c919392936100c9565b926100c9565b820180921161046757565b610433565b61048b9161047e610484926004610413565b42610447565b600e61027f565b56fe60806040526004361015610013575b6106ac565b61001d5f3561011c565b80631385a6f2146101175780631695edd31461011257806342ecd2fb1461010d5780635c8cf7501461010857806366fafd38146101035780636720ceb1146100fe57806370dea79a146100f95780637150d8ae146100f457806377c93662146100ef578063afe01043146100ea578063b3ae1d2c146100e5578063bec67887146100e0578063cb102941146100db578063cd1615c6146100d6578063d40c77fb146100d15763d7a98c840361000e57610679565b61060c565b6105e3565b6105ae565b61055e565b61052b565b6104f6565b610428565b6103e4565b6103a1565b61031b565b6102e6565b6102a4565b61026f565b610237565b6101bc565b60e01c90565b60405190565b5f80fd5b5f80fd5b5f91031261013a57565b61012c565b1c90565b60018060a01b031690565b61015e906008610163930261013f565b610143565b90565b90610171915461014e565b90565b61018060015f90610166565b90565b60018060a01b031690565b61019790610183565b90565b6101a39061018e565b9052565b91906101ba905f6020850194019061019a565b565b346101ec576101cc366004610130565b6101e86101d7610174565b6101df610122565b918291826101a7565b0390f35b610128565b6101fa8161018e565b0361020157565b5f80fd5b90503590610212826101f1565b565b9060208282031261022d5761022a915f01610205565b90565b61012c565b5f0190565b61024a610245366004610214565b6109a5565b610252610122565b8061025c81610232565b0390f35b61026c60045f90610166565b90565b3461029f5761027f366004610130565b61029b61028a610260565b610292610122565b918291826101a7565b0390f35b610128565b346102d2576102b4366004610130565b6102bc610b72565b6102c4610122565b806102ce81610232565b0390f35b610128565b6102e360035f90610166565b90565b34610316576102f6366004610130565b6103126103016102d7565b610309610122565b918291826101a7565b0390f35b610128565b610326366004610130565b61032e6110e9565b610336610122565b8061034081610232565b0390f35b90565b61035790600861035c930261013f565b610344565b90565b9061036a9154610347565b90565b610379600e5f9061035f565b90565b90565b6103889061037c565b9052565b919061039f905f6020850194019061037f565b565b346103d1576103b1366004610130565b6103cd6103bc61036d565b6103c4610122565b9182918261038c565b0390f35b610128565b6103e15f5f90610166565b90565b34610414576103f4366004610130565b6104106103ff6103d6565b610407610122565b918291826101a7565b0390f35b610128565b61042560025f90610166565b90565b3461045857610438366004610130565b610454610443610419565b61044b610122565b918291826101a7565b0390f35b610128565b60ff1690565b610473906008610478930261013f565b61045d565b90565b906104869154610463565b90565b610496600460149061047b565b90565b634e487b7160e01b5f52602160045260245ffd5b600811156104b757565b610499565b906104c6826104ad565b565b6104d1906104bc565b90565b6104dd906104c8565b9052565b91906104f4905f602085019401906104d4565b565b3461052657610506366004610130565b610522610511610489565b610519610122565b918291826104e1565b0390f35b610128565b346105595761053b366004610130565b61054361119b565b61054b610122565b8061055581610232565b0390f35b610128565b610569366004610130565b610571611465565b610579610122565b8061058381610232565b0390f35b151590565b61059590610587565b9052565b91906105ac905f6020850194019061058c565b565b346105de576105be366004610130565b6105da6105c9611473565b6105d1610122565b91829182610599565b0390f35b610128565b6105ee366004610130565b6105f661153a565b6105fe610122565b8061060881610232565b0390f35b61061f61061a366004610214565b6115ca565b610627610122565b8061063181610232565b0390f35b90565b61064181610635565b0361064857565b5f80fd5b9050359061065982610638565b565b9060208282031261067457610671915f0161064c565b90565b61012c565b346106a75761069161068c36600461065b565b611688565b610699610122565b806106a381610232565b0390f35b610128565b5f80fd5b5f1c90565b6106c16106c6916106b0565b610143565b90565b6106d390546106b5565b90565b60209181520190565b5f7f556e65787065637465642073656e646572000000000000000000000000000000910152565b61071360116020926106d6565b61071c816106df565b0190565b6107359060208101905f818303910152610706565b90565b1561073f57565b610747610122565b62461bcd60e51b81528061075d60048201610720565b0390fd5b60a01c90565b61077361077891610761565b61045d565b90565b6107859054610767565b90565b60207f63757272656e7420737461746500000000000000000000000000000000000000917f43616e6e6f742072756e20746869732066756e6374696f6e20696e20746865205f8201520152565b6107e2602d6040926106d6565b6107eb81610788565b0190565b6108049060208101905f8183039101526107d5565b90565b1561080e57565b610816610122565b62461bcd60e51b81528061082c600482016107ef565b0390fd5b610886906108816108405f6106c9565b61085f600291610859610853339261018e565b9161018e565b14610738565b61087b61087561086f600461077b565b926104bc565b916104bc565b14610807565b610978565b565b5f1b90565b906108995f1991610888565b9181191691161790565b90565b6108ba6108b56108bf9261037c565b6108a3565b61037c565b90565b90565b906108da6108d56108e1926108a6565b6108c2565b825461088d565b9055565b906108f660018060a01b0391610888565b9181191691161790565b61091461090f61091992610183565b6108a3565b610183565b90565b61092590610900565b90565b6109319061091c565b90565b90565b9061094c61094761095392610928565b610934565b82546108e5565b9055565b610963610968916106b0565b610344565b90565b6109759054610957565b90565b61098e9061098734600c6108c5565b6003610937565b6109a3600361099d600f61096b565b906116e1565b565b6109ae90610830565b565b5f7f54696d656f757420686173206e6f742070617373656400000000000000000000910152565b6109e460166020926106d6565b6109ed816109b0565b0190565b610a069060208101905f8183039101526109d7565b90565b15610a1057565b610a18610122565b62461bcd60e51b815280610a2e600482016109f1565b0390fd5b610a3b90610900565b90565b610a4790610a32565b90565b610a539061091c565b90565b634e487b7160e01b5f52601160045260245ffd5b610a79610a7f9193929361037c565b9261037c565b8201809211610a8a57565b610a56565b610a97610122565b3d5f823e3d90fd5b610aa89061091c565b90565b90565b610ac2610abd610ac792610aab565b6108a3565b61037c565b90565b60207f73616374696f6e2063616e2062652063616e63656c6c65640000000000000000917f4e6f7420696e206120737461746520696e20776869636820746865207472616e5f8201520152565b610b2460386040926106d6565b610b2d81610aca565b0190565b610b469060208101905f818303910152610b17565b90565b15610b5057565b610b58610122565b62461bcd60e51b815280610b6e60048201610b31565b0390fd5b610b82610b7d611473565b610a09565b610b8c600461077b565b610b9e610b985f6104bc565b916104bc565b145f14610c0a575f808080610bc3610bbe610bb960026106c9565b610a3e565b610a4a565b610bcc30610a9f565b3190828215610c01575bf115610bfc57610bf06007610bea5f610aae565b906116e1565b5b610bfa5f610b49565b565b610a8f565b506108fc610bd6565b610c14600461077b565b610c27610c2160016104bc565b916104bc565b145f14610cd1575f808080610c4b610c46610c41836106c9565b610a3e565b610a4a565b610c55600661096b565b90828215610cc8575bf115610cc3575f808080610c82610c7d610c7860026106c9565b610a3e565b610a4a565b610c8b30610a9f565b3190828215610cba575bf115610cb557610caf6007610ca95f610aae565b906116e1565b5b610bf1565b610a8f565b506108fc610c95565b610a8f565b506108fc610c5e565b610cdb600461077b565b610cee610ce860046104bc565b916104bc565b145f14610df0575f808080610d13610d0e610d0960036106c9565b610a3e565b610a4a565b610d30610d20600961096b565b610d2a600c61096b565b90610a6a565b90828215610de7575bf115610de2575f808080610d5c610d57610d52836106c9565b610a3e565b610a4a565b610d66600661096b565b90828215610dd9575bf115610dd4575f808080610d93610d8e610d8960026106c9565b610a3e565b610a4a565b610d9c30610a9f565b3190828215610dcb575bf115610dc657610dc06007610dba5f610aae565b906116e1565b5b610cb0565b610a8f565b506108fc610da6565b610a8f565b506108fc610d6f565b610a8f565b506108fc610d39565b610dfa600461077b565b610e0d610e0760056104bc565b916104bc565b14610e18575b610dc1565b5f808080610e36610e31610e2c60036106c9565b610a3e565b610a4a565b610e53610e43600961096b565b610e4d600c61096b565b90610a6a565b90828215610f4e575bf115610f49575f808080610e7f610e7a610e75836106c9565b610a3e565b610a4a565b610e89600661096b565b90828215610f40575bf115610f3b575f808080610eb6610eb1610eac60016106c9565b610a3e565b610a4a565b610ec0600d61096b565b90828215610f32575bf115610f2d575f808080610eed610ee8610ee360026106c9565b610a3e565b610a4a565b610ef630610a9f565b3190828215610f24575bf115610f1f57610f1a6007610f145f610aae565b906116e1565b610e13565b610a8f565b506108fc610f00565b610a8f565b506108fc610ec9565b610a8f565b506108fc610e92565b610a8f565b506108fc610e5c565b610fa3610f635f6106c9565b610f815f91610f7b610f75339261018e565b9161018e565b14610738565b610f9d610f97610f91600461077b565b926104bc565b916104bc565b14610807565b610fab61107a565b565b60207f7369740000000000000000000000000000000000000000000000000000000000917f41677265656420707269636520697320686967686572207468616e206465706f5f8201520152565b61100760236040926106d6565b61101081610fad565b0190565b6110299060208101905f818303910152610ffa565b90565b1561103357565b61103b610122565b62461bcd60e51b81528061105160048201611014565b0390fd5b61106461106a9193929361037c565b9261037c565b820391821161107557565b610a56565b6110a03461109961109361108e600661096b565b61037c565b9161037c565b101561102c565b6110ab3460086108c5565b6110d26110cb6110bb600861096b565b6110c5600661096b565b90611055565b600b6108c5565b6110e760016110e1600f61096b565b906116e1565b565b6110f1610f57565b565b60207f74696f6e2063616e20626520636f6d706c657465640000000000000000000000917f4e6f7420696e206120737461746520776865726520746865207472616e7361635f8201520152565b61114d60356040926106d6565b611156816110f3565b0190565b61116f9060208101905f818303910152611140565b90565b1561117957565b611181610122565b62461bcd60e51b8152806111976004820161115a565b0390fd5b6111a5600461077b565b6111b86111b260026104bc565b916104bc565b1480156112df575b6111c990611172565b6111d96111d4611473565b610a09565b5f8080806111f76111f26111ed60016106c9565b610a3e565b610a4a565b611201600661096b565b908282156112d6575bf1156112d15761121a600461077b565b61122d61122760036104bc565b916104bc565b1461128e575b5f80808061125161124c61124760026106c9565b610a3e565b610a4a565b61125a30610a9f565b3190828215611285575bf1156112805761127e60076112785f610aae565b906116e1565b565b610a8f565b506108fc611264565b5f8080806112ab6112a66112a1836106c9565b610a3e565b610a4a565b6112b5600c61096b565b908282156112c8575bf161123357610a8f565b506108fc6112be565b610a8f565b506108fc61120a565b506111c96112ed600461077b565b6113006112fa60036104bc565b916104bc565b1490506111c0565b61135661131560046106c9565b61133460059161132e611328339261018e565b9161018e565b14610738565b61135061134a611344600461077b565b926104bc565b916104bc565b14610807565b61135e611434565b565b90565b61137761137261137c92611360565b6108a3565b61037c565b90565b611389600a611363565b90565b60207f7665722064697370757465206665657300000000000000000000000000000000917f4e6f7420656e6f756768206d6f6e6579206465706f736974656420746f20636f5f8201520152565b6113e660306040926106d6565b6113ef8161138c565b0190565b6114089060208101905f8183039101526113d9565b90565b1561141257565b61141a610122565b62461bcd60e51b815280611430600482016113f3565b0390fd5b6114583461145161144b61144661137f565b61037c565b9161037c565b101561140b565b61146334600a6108c5565b565b61146d611308565b565b5f90565b61147b61146f565b504261149861149261148d600e61096b565b61037c565b9161037c565b1190565b6114ea6114a960036106c9565b6114c86003916114c26114bc339261018e565b9161018e565b14610738565b6114e46114de6114d8600461077b565b926104bc565b916104bc565b14610807565b6114f26114f4565b565b6115183461151161150b61150661137f565b61037c565b9161037c565b101561140b565b6115233460096108c5565b6115386004611532600f61096b565b906116e1565b565b61154261149c565b565b61159b9061159661155560016106c9565b61157460049161156e611568339261018e565b9161018e565b14610738565b61159061158a611584600461077b565b926104bc565b916104bc565b14610807565b61159d565b565b6115b3906115ac34600d6108c5565b6004610937565b6115c860056115c2600f61096b565b906116e1565b565b6115d390611544565b565b61162c906116276115e660016106c9565b6116056001916115ff6115f9339261018e565b9161018e565b14610738565b61162161161b611615600461077b565b926104bc565b916104bc565b14610807565b611666565b565b61163790610635565b90565b611643906106b0565b90565b9061165b6116566116629261162e565b61163a565b825461088d565b9055565b611671906005611646565b6116866002611680600f61096b565b906116e1565b565b611691906115d5565b565b60a01b90565b906116a860ff60a01b91611693565b9181191691161790565b6116bb906104bc565b90565b90565b906116d66116d16116dd926116b2565b6116be565b8254611699565b9055565b611700916116f36116f99260046116c1565b42610a6a565b600e6108c5565b56fea264697066735822122082bced1fdbad8c922b2dc1f689c6b0831a86ffd64d2e7907fd9475d8f26da38564736f6c634300081c0033","linkReferences":{}},"methodIdentifiers":{"buyer()":"7150d8ae","buyerDisputeSponsor()":"66fafd38","cancelTransaction()":"5c8cf750","completeTransaction()":"b3ae1d2c","currState()":"afe01043","registerBuyerDisputeSponsor(address)":"1695edd3","registerVendorDisputeSponsor(address)":"d40c77fb","sendBuyerDisputeSponsorFee()":"cd1615c6","sendKey(bytes32)":"d7a98c84","sendPayment()":"6720ceb1","sendVendorDisputeSponsorFee()":"bec67887","sponsor()":"77c93662","timeout()":"70dea79a","timeoutHasPassed()":"cb102941","vendor()":"1385a6f2","vendorDisputeSponsor()":"42ecd2fb"},"id":23}