{"abi":[{"type":"constructor","inputs":[{"name":"_buyer","type":"address","internalType":"address"},{"name":"_vendor","type":"address","internalType":"address"},{"name":"_agreedPrice","type":"uint256","internalType":"uint256"},{"name":"_completionTip","type":"uint256","internalType":"uint256"},{"name":"_disputeTip","type":"uint256","internalType":"uint256"},{"name":"_timeoutIncrement","type":"uint256","internalType":"uint256"}],"stateMutability":"payable"},{"type":"function","name":"agreedPrice","inputs":[],"outputs":[{"name":"","type":"uint256","internalType":"uint256"}],"stateMutability":"view"},{"type":"function","name":"buyer","inputs":[],"outputs":[{"name":"","type":"address","internalType":"address"}],"stateMutability":"view"},{"type":"function","name":"buyerDeposit","inputs":[],"outputs":[{"name":"","type":"uint256","internalType":"uint256"}],"stateMutability":"view"},{"type":"function","name":"buyerDisputeSponsor","inputs":[],"outputs":[{"name":"","type":"address","internalType":"address"}],"stateMutability":"view"},{"type":"function","name":"cancelTransaction","inputs":[],"outputs":[],"stateMutability":"nonpayable"},{"type":"function","name":"completeTransaction","inputs":[],"outputs":[],"stateMutability":"nonpayable"},{"type":"function","name":"completionTip","inputs":[],"outputs":[{"name":"","type":"uint256","internalType":"uint256"}],"stateMutability":"view"},{"type":"function","name":"currState","inputs":[],"outputs":[{"name":"","type":"uint8","internalType":"enum OptimisticState"}],"stateMutability":"view"},{"type":"function","name":"disputeContract","inputs":[],"outputs":[{"name":"","type":"address","internalType":"address"}],"stateMutability":"view"},{"type":"function","name":"disputeTip","inputs":[],"outputs":[{"name":"","type":"uint256","internalType":"uint256"}],"stateMutability":"view"},{"type":"function","name":"endDispute","inputs":[],"outputs":[],"stateMutability":"nonpayable"},{"type":"function","name":"key","inputs":[],"outputs":[{"name":"","type":"bytes","internalType":"bytes"}],"stateMutability":"view"},{"type":"function","name":"nextTimeoutTime","inputs":[],"outputs":[{"name":"","type":"uint256","internalType":"uint256"}],"stateMutability":"view"},{"type":"function","name":"registerBuyerDisputeSponsor","inputs":[{"name":"_sb","type":"address","internalType":"address"}],"outputs":[],"stateMutability":"payable"},{"type":"function","name":"registerVendorDisputeSponsor","inputs":[{"name":"_sv","type":"address","internalType":"address"}],"outputs":[],"stateMutability":"payable"},{"type":"function","name":"sbDeposit","inputs":[],"outputs":[{"name":"","type":"uint256","internalType":"uint256"}],"stateMutability":"view"},{"type":"function","name":"sbTip","inputs":[],"outputs":[{"name":"","type":"uint256","internalType":"uint256"}],"stateMutability":"view"},{"type":"function","name":"sendBuyerDisputeSponsorFee","inputs":[],"outputs":[],"stateMutability":"payable"},{"type":"function","name":"sendKey","inputs":[{"name":"_key","type":"bytes","internalType":"bytes"}],"outputs":[],"stateMutability":"nonpayable"},{"type":"function","name":"sendPayment","inputs":[],"outputs":[],"stateMutability":"payable"},{"type":"function","name":"sendVendorDisputeSponsorFee","inputs":[],"outputs":[],"stateMutability":"payable"},{"type":"function","name":"sponsor","inputs":[],"outputs":[{"name":"","type":"address","internalType":"address"}],"stateMutability":"view"},{"type":"function","name":"sponsorDeposit","inputs":[],"outputs":[{"name":"","type":"uint256","internalType":"uint256"}],"stateMutability":"view"},{"type":"function","name":"sponsorTip","inputs":[],"outputs":[{"name":"","type":"uint256","internalType":"uint256"}],"stateMutability":"view"},{"type":"function","name":"startDispute","inputs":[{"name":"_numBlocks","type":"uint256","internalType":"uint256"},{"name":"_numGates","type":"uint256","internalType":"uint256"},{"name":"_commitment","type":"bytes32","internalType":"bytes32"}],"outputs":[],"stateMutability":"nonpayable"},{"type":"function","name":"svDeposit","inputs":[],"outputs":[{"name":"","type":"uint256","internalType":"uint256"}],"stateMutability":"view"},{"type":"function","name":"svTip","inputs":[],"outputs":[{"name":"","type":"uint256","internalType":"uint256"}],"stateMutability":"view"},{"type":"function","name":"timeoutHasPassed","inputs":[],"outputs":[{"name":"","type":"bool","internalType":"bool"}],"stateMutability":"view"},{"type":"function","name":"timeoutIncrement","inputs":[],"outputs":[{"name":"","type":"uint256","internalType":"uint256"}],"stateMutability":"view"},{"type":"function","name":"vendor","inputs":[],"outputs":[{"name":"","type":"address","internalType":"address"}],"stateMutability":"view"},{"type":"function","name":"vendorDisputeSponsor","inputs":[],"outputs":[{"name":"","type":"address","internalType":"address"}],"stateMutability":"view"}],"bytecode":{"object":"0x608060405261001b61000f610159565b94939093929192610305565b610023610031565b612459610496823961245990f35b60405190565b601f801991011690565b634e487b7160e01b5f52604160045260245ffd5b9061005f90610037565b810190811060018060401b0382111761007757604052565b610041565b9061008f610088610031565b9283610055565b565b5f80fd5b60018060a01b031690565b6100a990610095565b90565b6100b5816100a0565b036100bc57565b5f80fd5b905051906100cd826100ac565b565b90565b6100db816100cf565b036100e257565b5f80fd5b905051906100f3826100d2565b565b909160c0828403126101545761010d835f84016100c0565b9261011b81602085016100c0565b9261012982604083016100e6565b9261015161013a84606085016100e6565b9361014881608086016100e6565b9360a0016100e6565b90565b610091565b6101776128ef8038038061016c8161007c565b9283398101906100f5565b909192939495565b90565b90565b61019961019461019e9261017f565b610182565b6100cf565b90565b6101ab6005610185565b90565b60209181520190565b5f7f4e6f7420656e6f756768206d6f6e657920746f20636f76657220666565730000910152565b6101eb601e6020926101ae565b6101f4816101b7565b0190565b61020d9060208101905f8183039101526101de565b90565b1561021757565b61021f610031565b62461bcd60e51b815280610235600482016101f8565b0390fd5b5f1b90565b9061024a5f1991610239565b9181191691161790565b61026861026361026d926100cf565b610182565b6100cf565b90565b90565b9061028861028361028f92610254565b610270565b825461023e565b9055565b906102a460018060a01b0391610239565b9181191691161790565b6102c26102bd6102c792610095565b610182565b610095565b90565b6102d3906102ae565b90565b6102df906102ca565b90565b90565b906102fa6102f5610301926102d6565b6102e2565b8254610293565b9055565b9261036b6103809695936103646103729461035d610379986103413461033a61033461032f6101a1565b6100cf565b916100cf565b1015610210565b61034c34600b610273565b6103573360026102e5565b5f6102e5565b60016102e5565b6007610273565b6008610273565b6009610273565b600a610273565b6103895f61046a565b565b60a01b90565b906103a060ff60a01b9161038b565b9181191691161790565b634e487b7160e01b5f52602160045260245ffd5b600911156103c857565b6103aa565b906103d7826103be565b565b6103e2906103cd565b90565b90565b906103fd6103f8610404926103d9565b6103e5565b8254610391565b9055565b5f1c90565b90565b61041c61042191610408565b61040d565b90565b61042e9054610410565b90565b634e487b7160e01b5f52601160045260245ffd5b61045461045a919392936100cf565b926100cf565b820180921161046557565b610431565b6104759060056103e8565b61049361048c42610486600a610424565b90610445565b6012610273565b56fe60806040526004361015610013575b610e1a565b61001d5f3561020c565b80631385a6f2146102075780631695edd3146102025780633943380c146101fd5780634010b84e146101f85780634018fe3a146101f357806342ecd2fb146101ee5780635c8cf750146101e9578063651b72cc146101e457806366fafd38146101df5780636720ceb1146101da5780637150d8ae146101d557806377c93662146101d0578063788e26e7146101cb5780638a351ea9146101c6578063907a2ae8146101c15780639367725f146101bc578063a0579587146101b7578063afe01043146101b2578063b273e014146101ad578063b3ae1d2c146101a8578063bc7899e2146101a3578063bec678871461019e578063cb10294114610199578063cd1615c614610194578063d1fc8cf31461018f578063d40c77fb1461018a578063e5d9f48414610185578063ed2c588814610180578063f0a619931461017b578063f18b59d9146101765763fab427d80361000e57610de5565b610da1565b610d5d565b610d19565b610cd5565b610c9d565b610c6a565b610c41565b610c0c565b610bbc565b610b87565b610b45565b610b10565b610acc565b6109fe565b6109ba565b610977565b6108c2565b61080a565b6107c6565b610782565b61074b565b610716565b6106d2565b610690565b61065b565b610617565b610585565b610541565b61032b565b6102ac565b60e01c90565b60405190565b5f80fd5b5f80fd5b5f91031261022a57565b61021c565b1c90565b60018060a01b031690565b61024e906008610253930261022f565b610233565b90565b90610261915461023e565b90565b61027060015f90610256565b90565b60018060a01b031690565b61028790610273565b90565b6102939061027e565b9052565b91906102aa905f6020850194019061028a565b565b346102dc576102bc366004610220565b6102d86102c7610264565b6102cf610212565b91829182610297565b0390f35b610218565b5f80fd5b6102ee8161027e565b036102f557565b5f80fd5b90503590610306826102e5565b565b906020828203126103215761031e915f016102f9565b90565b61021c565b5f0190565b61033e610339366004610308565b6111d6565b610346610212565b8061035081610326565b0390f35b634e487b7160e01b5f525f60045260245ffd5b634e487b7160e01b5f52602260045260245ffd5b906001600283049216801561039b575b602083101461039657565b610367565b91607f169161038b565b60209181520190565b5f5260205f2090565b905f92918054906103d16103ca8361037b565b80946103a5565b916001811690815f1461042857506001146103ec575b505050565b6103f991929394506103ae565b915f925b81841061041057505001905f80806103e7565b600181602092959395548486015201910192906103fd565b92949550505060ff19168252151560200201905f80806103e7565b9061044d916103b7565b90565b601f801991011690565b634e487b7160e01b5f52604160045260245ffd5b9061047890610450565b810190811067ffffffffffffffff82111761049257604052565b61045a565b906104b76104b0926104a7610212565b93848092610443565b038361046e565b565b905f106104cc576104c990610497565b90565b610354565b6104dd60065f906104b9565b90565b5190565b60209181520190565b90825f9392825e0152565b6105176105206020936105259361050e816104e0565b938480936104e4565b958691016104ed565b610450565b0190565b61053e9160208201915f8184039101526104f8565b90565b3461057157610551366004610220565b61056d61055c6104d1565b610564610212565b91829182610529565b0390f35b610218565b61058260055f90610256565b90565b346105b557610595366004610220565b6105b16105a0610576565b6105a8610212565b91829182610297565b0390f35b610218565b90565b6105cd9060086105d2930261022f565b6105ba565b90565b906105e091546105bd565b90565b6105ef60125f906105d5565b90565b90565b6105fe906105f2565b9052565b9190610615905f602085019401906105f5565b565b3461064757610627366004610220565b6106436106326105e3565b61063a610212565b91829182610602565b0390f35b610218565b61065860045f90610256565b90565b3461068b5761066b366004610220565b61068761067661064c565b61067e610212565b91829182610297565b0390f35b610218565b346106be576106a0366004610220565b6106a861135b565b6106b0610212565b806106ba81610326565b0390f35b610218565b6106cf600d5f906105d5565b90565b34610702576106e2366004610220565b6106fe6106ed6106c3565b6106f5610212565b91829182610602565b0390f35b610218565b61071360035f90610256565b90565b3461074657610726366004610220565b610742610731610707565b610739610212565b91829182610297565b0390f35b610218565b610756366004610220565b61075e6118b9565b610766610212565b8061077081610326565b0390f35b61077f5f5f90610256565b90565b346107b257610792366004610220565b6107ae61079d610774565b6107a5610212565b91829182610297565b0390f35b610218565b6107c360025f90610256565b90565b346107f6576107d6366004610220565b6107f26107e16107b7565b6107e9610212565b91829182610297565b0390f35b610218565b610807600b5f906105d5565b90565b3461083a5761081a366004610220565b6108366108256107fb565b61082d610212565b91829182610602565b0390f35b610218565b610848816105f2565b0361084f57565b5f80fd5b905035906108608261083f565b565b90565b61086e81610862565b0361087557565b5f80fd5b9050359061088682610865565b565b90916060828403126108bd576108ba6108a3845f8501610853565b936108b18160208601610853565b93604001610879565b90565b61021c565b346108f1576108db6108d5366004610888565b91611a95565b6108e3610212565b806108ed81610326565b0390f35b610218565b5f80fd5b5f80fd5b5f80fd5b909182601f8301121561093c5781359167ffffffffffffffff831161093757602001926001830284011161093257565b6108fe565b6108fa565b6108f6565b90602082820312610972575f82013567ffffffffffffffff811161096d576109699201610902565b9091565b6102e1565b61021c565b346109a65761099061098a366004610941565b90611e17565b610998610212565b806109a281610326565b0390f35b610218565b6109b7600e5f906105d5565b90565b346109ea576109ca366004610220565b6109e66109d56109ab565b6109dd610212565b91829182610602565b0390f35b610218565b6109fb600c5f906105d5565b90565b34610a2e57610a0e366004610220565b610a2a610a196109ef565b610a21610212565b91829182610602565b0390f35b610218565b60ff1690565b610a49906008610a4e930261022f565b610a33565b90565b90610a5c9154610a39565b90565b610a6c6005601490610a51565b90565b634e487b7160e01b5f52602160045260245ffd5b60091115610a8d57565b610a6f565b90610a9c82610a83565b565b610aa790610a92565b90565b610ab390610a9e565b9052565b9190610aca905f60208501940190610aaa565b565b34610afc57610adc366004610220565b610af8610ae7610a5f565b610aef610212565b91829182610ab7565b0390f35b610218565b610b0d600f5f906105d5565b90565b34610b4057610b20366004610220565b610b3c610b2b610b01565b610b33610212565b91829182610602565b0390f35b610218565b34610b7357610b55366004610220565b610b5d611ecb565b610b65610212565b80610b6f81610326565b0390f35b610218565b610b8460075f906105d5565b90565b34610bb757610b97366004610220565b610bb3610ba2610b78565b610baa610212565b91829182610602565b0390f35b610218565b610bc7366004610220565b610bcf6121bb565b610bd7610212565b80610be181610326565b0390f35b151590565b610bf390610be5565b9052565b9190610c0a905f60208501940190610bea565b565b34610c3c57610c1c366004610220565b610c38610c276121c9565b610c2f610212565b91829182610bf7565b0390f35b610218565b610c4c366004610220565b610c54612286565b610c5c610212565b80610c6681610326565b0390f35b34610c9857610c7a366004610220565b610c826122f4565b610c8a610212565b80610c9481610326565b0390f35b610218565b610cb0610cab366004610308565b61239f565b610cb8610212565b80610cc281610326565b0390f35b610cd260095f906105d5565b90565b34610d0557610ce5366004610220565b610d01610cf0610cc6565b610cf8610212565b91829182610602565b0390f35b610218565b610d1660105f906105d5565b90565b34610d4957610d29366004610220565b610d45610d34610d0a565b610d3c610212565b91829182610602565b0390f35b610218565b610d5a60115f906105d5565b90565b34610d8d57610d6d366004610220565b610d89610d78610d4e565b610d80610212565b91829182610602565b0390f35b610218565b610d9e600a5f906105d5565b90565b34610dd157610db1366004610220565b610dcd610dbc610d92565b610dc4610212565b91829182610602565b0390f35b610218565b610de260085f906105d5565b90565b34610e1557610df5366004610220565b610e11610e00610dd6565b610e08610212565b91829182610602565b0390f35b610218565b5f80fd5b5f1c90565b610e2f610e3491610e1e565b610233565b90565b610e419054610e23565b90565b60209181520190565b5f7f556e65787065637465642073656e646572000000000000000000000000000000910152565b610e816011602092610e44565b610e8a81610e4d565b0190565b610ea39060208101905f818303910152610e74565b90565b15610ead57565b610eb5610212565b62461bcd60e51b815280610ecb60048201610e8e565b0390fd5b60a01c90565b610ee1610ee691610ecf565b610a33565b90565b610ef39054610ed5565b90565b60207f63757272656e7420737461746500000000000000000000000000000000000000917f43616e6e6f742072756e20746869732066756e6374696f6e20696e20746865205f8201520152565b610f50602d604092610e44565b610f5981610ef6565b0190565b610f729060208101905f818303910152610f43565b90565b15610f7c57565b610f84610212565b62461bcd60e51b815280610f9a60048201610f5d565b0390fd5b610ff490610fef610fae5f610e37565b610fcd600291610fc7610fc1339261027e565b9161027e565b14610ea6565b610fe9610fe3610fdd6005610ee9565b92610a92565b91610a92565b14610f75565b61118e565b565b61100261100791610e1e565b6105ba565b90565b6110149054610ff6565b90565b60207f6e206465706f7369740000000000000000000000000000000000000000000000917f41677265656420646973707574652074697020697320686967686572207468615f8201520152565b6110716029604092610e44565b61107a81611017565b0190565b6110939060208101905f818303910152611064565b90565b1561109d57565b6110a5610212565b62461bcd60e51b8152806110bb6004820161107e565b0390fd5b5f1b90565b906110d05f19916110bf565b9181191691161790565b90565b6110f16110ec6110f6926105f2565b6110da565b6105f2565b90565b90565b9061111161110c611118926110dd565b6110f9565b82546110c4565b9055565b9061112d60018060a01b03916110bf565b9181191691161790565b61114b61114661115092610273565b6110da565b610273565b90565b61115c90611137565b90565b61116890611153565b90565b90565b9061118361117e61118a9261115f565b61116b565b825461111c565b9055565b6111ca906111b8346111b16111ab6111a6600961100a565b6105f2565b916105f2565b1015611096565b6111c33460106110fc565b600361116e565b6111d460036123f8565b565b6111df90610f9e565b565b5f7f54696d656f757420686173206e6f742070617373656400000000000000000000910152565b6112156016602092610e44565b61121e816111e1565b0190565b6112379060208101905f818303910152611208565b90565b1561124157565b611249610212565b62461bcd60e51b81528061125f60048201611222565b0390fd5b61126c90611137565b90565b61127890611263565b90565b61128490611153565b90565b634e487b7160e01b5f52601160045260245ffd5b6112aa6112b0919392936105f2565b926105f2565b82018092116112bb57565b611287565b6112c8610212565b3d5f823e3d90fd5b6112d990611153565b90565b60207f73616374696f6e2063616e2062652063616e63656c6c65640000000000000000917f4e6f7420696e206120737461746520696e20776869636820746865207472616e5f8201520152565b6113366038604092610e44565b61133f816112dc565b0190565b6113589060208101905f818303910152611329565b90565b61136b6113666121c9565b61123a565b6113756005610ee9565b6113876113815f610a92565b91610a92565b145f146113df575f8080806113ac6113a76113a26002610e37565b61126f565b61127b565b6113b5306112d0565b31908282156113d6575bf1156113d1576113cf60086123f8565b565b6112c0565b506108fc6113bf565b6113e96005610ee9565b6113fc6113f66001610a92565b91610a92565b145f14611498575f80808061142061141b61141683610e37565b61126f565b61127b565b61142a600761100a565b9082821561148f575bf11561148a575f80808061145761145261144d6002610e37565b61126f565b61127b565b611460306112d0565b3190828215611481575bf11561147c5761147a60086123f8565b565b6112c0565b506108fc61146a565b6112c0565b506108fc611433565b6114a26005610ee9565b6114b56114af6004610a92565b91610a92565b145f146115a9575f8080806114da6114d56114d06003610e37565b61126f565b61127b565b6114f76114e7600d61100a565b6114f1601061100a565b9061129b565b908282156115a0575bf11561159b575f80808061152361151e61151983610e37565b61126f565b61127b565b61152d600761100a565b90828215611592575bf11561158d575f80808061155a6115556115506002610e37565b61126f565b61127b565b611563306112d0565b3190828215611584575bf11561157f5761157d60086123f8565b565b6112c0565b506108fc61156d565b6112c0565b506108fc611536565b6112c0565b506108fc611500565b6115b36005610ee9565b6115c66115c06005610a92565b91610a92565b146115ed576115d3610212565b62461bcd60e51b8152806115e960048201611343565b0390fd5b5f80808061160b6116066116016003610e37565b61126f565b61127b565b611628611618600d61100a565b611622601061100a565b9061129b565b90828215611716575bf115611711575f80808061165461164f61164a83610e37565b61126f565b61127b565b61165e600761100a565b90828215611708575bf115611703575f80808061168b6116866116816001610e37565b61126f565b61127b565b611695601161100a565b908282156116fa575bf1156116f5575f8080806116c26116bd6116b86002610e37565b61126f565b61127b565b6116cb306112d0565b31908282156116ec575bf1156116e7576116e560086123f8565b565b6112c0565b506108fc6116d5565b6112c0565b506108fc61169e565b6112c0565b506108fc611667565b6112c0565b506108fc611631565b61176b61172b5f610e37565b6117495f9161174361173d339261027e565b9161027e565b14610ea6565b61176561175f6117596005610ee9565b92610a92565b91610a92565b14610f75565b611773611842565b565b60207f697320686967686572207468616e206465706f73697400000000000000000000917f41677265656420707269636520616e6420636f6d706c6574696f6e20746970205f8201520152565b6117cf6036604092610e44565b6117d881611775565b0190565b6117f19060208101905f8183039101526117c2565b90565b156117fb57565b611803610212565b62461bcd60e51b815280611819600482016117dc565b0390fd5b61182c611832919392936105f2565b926105f2565b820391821161183d57565b611287565b61187b3461187461186e611869611859600761100a565b611863600861100a565b9061129b565b6105f2565b916105f2565b10156117f4565b61188634600c6110fc565b6118ad6118a6611896600c61100a565b6118a0600761100a565b9061181d565b600f6110fc565b6118b760016123f8565b565b6118c161171f565b565b60207f737075746520746f207374617274000000000000000000000000000000000000917f436f6e7472616374206973206e6f742077616974696e6720666f7220612064695f8201520152565b61191d602e604092610e44565b611926816118c3565b0190565b61193f9060208101905f818303910152611910565b90565b1561194957565b611951610212565b62461bcd60e51b8152806119676004820161192a565b0390fd5b60207f2074686520646973707574650000000000000000000000000000000000000000917f4f6e6c79206120646973707574652073706f6e736f722063616e2073746172745f8201520152565b6119c5602c604092610e44565b6119ce8161196b565b0190565b6119e79060208101905f8183039101526119b8565b90565b156119f157565b6119f9610212565b62461bcd60e51b815280611a0f600482016119d2565b0390fd5b90565b60e01b90565b90505190611a29826102e5565b565b90602082820312611a4457611a41915f01611a1c565b90565b61021c565b611a52906105f2565b9052565b611a5f90610862565b9052565b604090611a8c611a939496959396611a8260608401985f850190611a49565b6020830190611a49565b0190611a56565b565b90602091611abf611aa66005610ee9565b611ab9611ab36006610a92565b91610a92565b14611942565b33611adb611ad5611ad06003610e37565b61027e565b9161027e565b148015611b93575b611aec906119ea565b611b2c611b0c73__$078b1d093af67beb5ee9b2131ca8cb4ec3$__611a13565b91611b3763a89f2f7d919496611b20610212565b97889687958695611a16565b855260048501611a63565b03915af48015611b8e57611b54915f91611b60575b50600561116e565b611b5e60076123f8565b565b611b81915060203d8111611b87575b611b79818361046e565b810190611a2b565b5f611b4c565b503d611b6f565b6112c0565b50611aec33611bb3611bad611ba86004610e37565b61027e565b9161027e565b149050611ae3565b90611c1391611c0e611bcd6001610e37565b611bec600191611be6611be0339261027e565b9161027e565b14610ea6565b611c08611c02611bfc6005610ee9565b92610a92565b91610a92565b14610f75565b611dff565b565b5090565b601f602091010490565b1b90565b91906008611c42910291611c3c5f1984611c23565b92611c23565b9181191691161790565b9190611c62611c5d611c6a936110dd565b6110f9565b908354611c27565b9055565b5f90565b611c8491611c7e611c6e565b91611c4c565b565b5b818110611c92575050565b80611c9f5f600193611c72565b01611c87565b9190601f8111611cb5575b505050565b611cc1611ce6936103ae565b906020611ccd84611c19565b83019310611cee575b611cdf90611c19565b0190611c86565b5f8080611cb0565b9150611cdf81929050611cd6565b90611d0c905f199060080261022f565b191690565b81611d1b91611cfc565b906002021790565b91611d2e9082611c15565b9067ffffffffffffffff8211611ded57611d5282611d4c855461037b565b85611ca5565b5f90601f8311600114611d8557918091611d74935f92611d79575b5050611d11565b90555b565b90915001355f80611d6d565b601f19831691611d94856103ae565b925f5b818110611dd557509160029391856001969410611dbb575b50505002019055611d77565b611dcb910135601f841690611cfc565b90555f8080611daf565b91936020600181928787013581550195019201611d97565b61045a565b90611dfd9291611d23565b565b90611e0b916006611df2565b611e1560026123f8565b565b90611e2191611bbb565b565b60207f74696f6e2063616e20626520636f6d706c657465640000000000000000000000917f4e6f7420696e206120737461746520776865726520746865207472616e7361635f8201520152565b611e7d6035604092610e44565b611e8681611e23565b0190565b611e9f9060208101905f818303910152611e70565b90565b15611ea957565b611eb1610212565b62461bcd60e51b815280611ec760048201611e8a565b0390fd5b611ed56005610ee9565b611ee8611ee26002610a92565b91610a92565b14801561202b575b611ef990611ea2565b33611f14611f0e611f095f610e37565b61027e565b9161027e565b03612016575b5f808080611f38611f33611f2e6001610e37565b61126f565b61127b565b611f42600761100a565b9082821561200d575bf11561200857611f5b6005610ee9565b611f6e611f686003610a92565b91610a92565b14611fc5575b5f808080611f92611f8d611f886002610e37565b61126f565b61127b565b611f9b306112d0565b3190828215611fbc575bf115611fb757611fb560086123f8565b565b6112c0565b506108fc611fa5565b5f808080611fe2611fdd611fd883610e37565b61126f565b61127b565b611fec601061100a565b90828215611fff575bf1611f74576112c0565b506108fc611ff5565b6112c0565b506108fc611f4b565b6120266120216121c9565b61123a565b611f1a565b50611ef96120396005610ee9565b61204c6120466003610a92565b91610a92565b149050611ef0565b6120a26120616004610e37565b61208060059161207a612074339261027e565b9161027e565b14610ea6565b61209c6120966120906005610ee9565b92610a92565b91610a92565b14610f75565b6120aa612180565b565b90565b6120c36120be6120c8926120ac565b6110da565b6105f2565b90565b6120d5600a6120af565b90565b60207f7665722064697370757465206665657300000000000000000000000000000000917f4e6f7420656e6f756768206d6f6e6579206465706f736974656420746f20636f5f8201520152565b6121326030604092610e44565b61213b816120d8565b0190565b6121549060208101905f818303910152612125565b90565b1561215e57565b612166610212565b62461bcd60e51b81528061217c6004820161213f565b0390fd5b6121a43461219d6121976121926120cb565b6105f2565b916105f2565b1015612157565b6121af34600e6110fc565b6121b960066123f8565b565b6121c3612054565b565b5f90565b6121d16121c5565b50426121ee6121e86121e3601261100a565b6105f2565b916105f2565b101590565b6122416122006003610e37565b61221f600391612219612213339261027e565b9161027e565b14610ea6565b61223b61223561222f6005610ee9565b92610a92565b91610a92565b14610f75565b61224961224b565b565b61226f3461226861226261225d6120cb565b6105f2565b916105f2565b1015612157565b61227a34600d6110fc565b61228460046123f8565b565b61228e6121f3565b565b6122de61229d6005610e37565b6122bc6007916122b66122b0339261027e565b9161027e565b14610ea6565b6122d86122d26122cc6005610ee9565b92610a92565b91610a92565b14610f75565b6122e66122e8565b565b6122f260086123f8565b565b6122fc612290565b565b6123559061235061230f6001610e37565b61232e600491612328612322339261027e565b9161027e565b14610ea6565b61234a61234461233e6005610ee9565b92610a92565b91610a92565b14610f75565b612357565b565b612393906123813461237a61237461236f600961100a565b6105f2565b916105f2565b1015611096565b61238c3460116110fc565b600461116e565b61239d60056123f8565b565b6123a8906122fe565b565b60a01b90565b906123bf60ff60a01b916123aa565b9181191691161790565b6123d290610a92565b90565b90565b906123ed6123e86123f4926123c9565b6123d5565b82546123b0565b9055565b6124039060056123d8565b61242161241a42612414600a61100a565b9061129b565b60126110fc565b56fea2646970667358221220ab15a781d417593649f4095c9b934786a7b36ed2c045176bfbaa3747cde3e16464736f6c634300081c0033","linkReferences":{"src/DisputeDeployer.sol":{"DisputeDeployer":[{"start":8074,"length":20}]}}},"methodIdentifiers":{"agreedPrice()":"bc7899e2","buyer()":"7150d8ae","buyerDeposit()":"a0579587","buyerDisputeSponsor()":"66fafd38","cancelTransaction()":"5c8cf750","completeTransaction()":"b3ae1d2c","completionTip()":"fab427d8","currState()":"afe01043","disputeContract()":"4010b84e","disputeTip()":"e5d9f484","endDispute()":"d1fc8cf3","key()":"3943380c","nextTimeoutTime()":"4018fe3a","registerBuyerDisputeSponsor(address)":"1695edd3","registerVendorDisputeSponsor(address)":"d40c77fb","sbDeposit()":"651b72cc","sbTip()":"ed2c5888","sendBuyerDisputeSponsorFee()":"cd1615c6","sendKey(bytes)":"907a2ae8","sendPayment()":"6720ceb1","sendVendorDisputeSponsorFee()":"bec67887","sponsor()":"77c93662","sponsorDeposit()":"788e26e7","sponsorTip()":"b273e014","startDispute(uint256,uint256,bytes32)":"8a351ea9","svDeposit()":"9367725f","svTip()":"f0a61993","timeoutHasPassed()":"cb102941","timeoutIncrement()":"f18b59d9","vendor()":"1385a6f2","vendorDisputeSponsor()":"42ecd2fb"},"id":23}