{"abi":[{"type":"constructor","inputs":[{"name":"_buyer","type":"address","internalType":"address"},{"name":"_vendor","type":"address","internalType":"address"},{"name":"_agreedPrice","type":"uint256","internalType":"uint256"}],"stateMutability":"payable"},{"type":"function","name":"buyer","inputs":[],"outputs":[{"name":"","type":"address","internalType":"address"}],"stateMutability":"view"},{"type":"function","name":"buyerDisputeSponsor","inputs":[],"outputs":[{"name":"","type":"address","internalType":"address"}],"stateMutability":"view"},{"type":"function","name":"cancelTransaction","inputs":[],"outputs":[],"stateMutability":"nonpayable"},{"type":"function","name":"completeTransaction","inputs":[],"outputs":[],"stateMutability":"nonpayable"},{"type":"function","name":"currState","inputs":[],"outputs":[{"name":"","type":"uint8","internalType":"enum OptimisticSOX.State"}],"stateMutability":"view"},{"type":"function","name":"getKey","inputs":[],"outputs":[{"name":"","type":"bytes32","internalType":"bytes32"}],"stateMutability":"view"},{"type":"function","name":"getState","inputs":[],"outputs":[{"name":"","type":"uint8","internalType":"enum OptimisticSOX.State"}],"stateMutability":"view"},{"type":"function","name":"registerBuyerDisputeSponsor","inputs":[{"name":"_sb","type":"address","internalType":"address"}],"outputs":[],"stateMutability":"payable"},{"type":"function","name":"registerVendorDisputeSponsor","inputs":[{"name":"_sv","type":"address","internalType":"address"}],"outputs":[],"stateMutability":"payable"},{"type":"function","name":"sendBuyerDisputeSponsorFee","inputs":[],"outputs":[],"stateMutability":"payable"},{"type":"function","name":"sendKey","inputs":[{"name":"_key","type":"bytes32","internalType":"bytes32"}],"outputs":[],"stateMutability":"nonpayable"},{"type":"function","name":"sendPayment","inputs":[],"outputs":[],"stateMutability":"payable"},{"type":"function","name":"sendVendorDisputeSponsorFee","inputs":[],"outputs":[],"stateMutability":"payable"},{"type":"function","name":"sponsor","inputs":[],"outputs":[{"name":"","type":"address","internalType":"address"}],"stateMutability":"view"},{"type":"function","name":"timeout","inputs":[],"outputs":[{"name":"","type":"uint256","internalType":"uint256"}],"stateMutability":"view"},{"type":"function","name":"timeoutHasPassed","inputs":[],"outputs":[{"name":"","type":"bool","internalType":"bool"}],"stateMutability":"view"},{"type":"function","name":"vendor","inputs":[],"outputs":[{"name":"","type":"address","internalType":"address"}],"stateMutability":"view"},{"type":"function","name":"vendorDisputeSponsor","inputs":[],"outputs":[{"name":"","type":"address","internalType":"address"}],"stateMutability":"view"}],"bytecode":{"object":"0x608060405261001561000f610129565b9161033a565b61001d61002b565b61183c61048e823961183c90f35b60405190565b601f801991011690565b634e487b7160e01b5f52604160045260245ffd5b9061005990610031565b810190811060018060401b0382111761007157604052565b61003b565b9061008961008261002b565b928361004f565b565b5f80fd5b60018060a01b031690565b6100a39061008f565b90565b6100af8161009a565b036100b657565b5f80fd5b905051906100c7826100a6565b565b90565b6100d5816100c9565b036100dc57565b5f80fd5b905051906100ed826100cc565b565b90916060828403126101245761012161010a845f85016100ba565b9361011881602086016100ba565b936040016100e0565b90565b61008b565b610147611cca8038038061013c81610076565b9283398101906100ef565b909192565b5f1b90565b9061015d5f199161014c565b9181191691161790565b90565b90565b61018161017c61018692610167565b61016a565b6100c9565b90565b90565b906101a161019c6101a89261016d565b610189565b8254610151565b9055565b90565b6101c36101be6101c8926101ac565b61016a565b6100c9565b90565b6101d560056101af565b90565b60209181520190565b5f7f4e6f7420656e6f756768206d6f6e657920746f20636f76657220666565730000910152565b610215601e6020926101d8565b61021e816101e1565b0190565b6102379060208101905f818303910152610208565b90565b1561024157565b61024961002b565b62461bcd60e51b81528061025f60048201610222565b0390fd5b61027761027261027c926100c9565b61016a565b6100c9565b90565b9061029461028f61029b92610263565b610189565b8254610151565b9055565b906102b060018060a01b039161014c565b9181191691161790565b6102ce6102c96102d39261008f565b61016a565b61008f565b90565b6102df906102ba565b90565b6102eb906102d6565b90565b90565b9061030661030161030d926102e2565b6102ee565b825461029f565b9055565b5f1c90565b90565b61032561032a91610311565b610316565b90565b6103379054610319565b90565b6103a0929161039261039992610352600a600f61018c565b6103763461036f6103696103646101cb565b6100c9565b916100c9565b101561023a565b61038134600761027f565b61038c3360026102f1565b5f6102f1565b60016102f1565b600661027f565b6103b45f6103ae600f61032d565b9061046c565b565b60a01b90565b906103cb60ff60a01b916103b6565b9181191691161790565b634e487b7160e01b5f52602160045260245ffd5b600811156103f357565b6103d5565b90610402826103e9565b565b61040d906103f8565b90565b90565b9061042861042361042f92610404565b610410565b82546103bc565b9055565b634e487b7160e01b5f52601160045260245ffd5b61045661045c919392936100c9565b926100c9565b820180921161046757565b610433565b61048b9161047e610484926004610413565b42610447565b600e61027f565b56fe60806040526004361015610013575b610758565b61001d5f3561013c565b80631385a6f2146101375780631695edd3146101325780631865c57d1461012d57806342ecd2fb146101285780635c8cf7501461012357806366fafd381461011e5780636720ceb11461011957806370dea79a146101145780637150d8ae1461010f57806377c936621461010a57806382678dd614610105578063afe0104314610100578063b3ae1d2c146100fb578063bec67887146100f6578063cb102941146100f1578063cd1615c6146100ec578063d40c77fb146100e75763d7a98c840361000e57610725565b6106bb565b610692565b61065d565b61060d565b6105da565b6105a5565b610534565b6104da565b610496565b610453565b6103cd565b610398565b610356565b610321565b6102dd565b610257565b6101dc565b60e01c90565b60405190565b5f80fd5b5f80fd5b5f91031261015a57565b61014c565b1c90565b60018060a01b031690565b61017e906008610183930261015f565b610163565b90565b90610191915461016e565b90565b6101a060015f90610186565b90565b60018060a01b031690565b6101b7906101a3565b90565b6101c3906101ae565b9052565b91906101da905f602085019401906101ba565b565b3461020c576101ec366004610150565b6102086101f7610194565b6101ff610142565b918291826101c7565b0390f35b610148565b61021a816101ae565b0361022157565b5f80fd5b9050359061023282610211565b565b9060208282031261024d5761024a915f01610225565b90565b61014c565b5f0190565b61026a610265366004610234565b610a51565b610272610142565b8061027c81610252565b0390f35b634e487b7160e01b5f52602160045260245ffd5b6008111561029e57565b610280565b906102ad82610294565b565b6102b8906102a3565b90565b6102c4906102af565b9052565b91906102db905f602085019401906102bb565b565b3461030d576102ed366004610150565b6103096102f8610a60565b610300610142565b918291826102c8565b0390f35b610148565b61031e60045f90610186565b90565b3461035157610331366004610150565b61034d61033c610312565b610344610142565b918291826101c7565b0390f35b610148565b3461038457610366366004610150565b61036e610c38565b610376610142565b8061038081610252565b0390f35b610148565b61039560035f90610186565b90565b346103c8576103a8366004610150565b6103c46103b3610389565b6103bb610142565b918291826101c7565b0390f35b610148565b6103d8366004610150565b6103e06111af565b6103e8610142565b806103f281610252565b0390f35b90565b61040990600861040e930261015f565b6103f6565b90565b9061041c91546103f9565b90565b61042b600e5f90610411565b90565b90565b61043a9061042e565b9052565b9190610451905f60208501940190610431565b565b3461048357610463366004610150565b61047f61046e61041f565b610476610142565b9182918261043e565b0390f35b610148565b6104935f5f90610186565b90565b346104c6576104a6366004610150565b6104c26104b1610488565b6104b9610142565b918291826101c7565b0390f35b610148565b6104d760025f90610186565b90565b3461050a576104ea366004610150565b6105066104f56104cb565b6104fd610142565b918291826101c7565b0390f35b610148565b90565b61051b9061050f565b9052565b9190610532905f60208501940190610512565b565b3461056457610544366004610150565b61056061054f6111e1565b610557610142565b9182918261051f565b0390f35b610148565b60ff1690565b61057f906008610584930261015f565b610569565b90565b90610592915461056f565b90565b6105a26004601490610587565b90565b346105d5576105b5366004610150565b6105d16105c0610595565b6105c8610142565b918291826102c8565b0390f35b610148565b34610608576105ea366004610150565b6105f261129f565b6105fa610142565b8061060481610252565b0390f35b610148565b610618366004610150565b610620611569565b610628610142565b8061063281610252565b0390f35b151590565b61064490610636565b9052565b919061065b905f6020850194019061063b565b565b3461068d5761066d366004610150565b610689610678611577565b610680610142565b91829182610648565b0390f35b610148565b61069d366004610150565b6106a561163e565b6106ad610142565b806106b781610252565b0390f35b6106ce6106c9366004610234565b6116ce565b6106d6610142565b806106e081610252565b0390f35b6106ed8161050f565b036106f457565b5f80fd5b90503590610705826106e4565b565b906020828203126107205761071d915f016106f8565b90565b61014c565b346107535761073d610738366004610707565b61178c565b610745610142565b8061074f81610252565b0390f35b610148565b5f80fd5b5f1c90565b61076d6107729161075c565b610163565b90565b61077f9054610761565b90565b60209181520190565b5f7f556e65787065637465642073656e646572000000000000000000000000000000910152565b6107bf6011602092610782565b6107c88161078b565b0190565b6107e19060208101905f8183039101526107b2565b90565b156107eb57565b6107f3610142565b62461bcd60e51b815280610809600482016107cc565b0390fd5b60a01c90565b61081f6108249161080d565b610569565b90565b6108319054610813565b90565b60207f63757272656e7420737461746500000000000000000000000000000000000000917f43616e6e6f742072756e20746869732066756e6374696f6e20696e20746865205f8201520152565b61088e602d604092610782565b61089781610834565b0190565b6108b09060208101905f818303910152610881565b90565b156108ba57565b6108c2610142565b62461bcd60e51b8152806108d86004820161089b565b0390fd5b6109329061092d6108ec5f610775565b61090b6002916109056108ff33926101ae565b916101ae565b146107e4565b61092761092161091b6004610827565b926102a3565b916102a3565b146108b3565b610a24565b565b5f1b90565b906109455f1991610934565b9181191691161790565b90565b61096661096161096b9261042e565b61094f565b61042e565b90565b90565b9061098661098161098d92610952565b61096e565b8254610939565b9055565b906109a260018060a01b0391610934565b9181191691161790565b6109c06109bb6109c5926101a3565b61094f565b6101a3565b90565b6109d1906109ac565b90565b6109dd906109c8565b90565b90565b906109f86109f36109ff926109d4565b6109e0565b8254610991565b9055565b610a0f610a149161075c565b6103f6565b90565b610a219054610a03565b90565b610a3a90610a3334600c610971565b60036109e3565b610a4f6003610a49600f610a17565b906117e5565b565b610a5a906108dc565b565b5f90565b610a68610a5c565b50610a736004610827565b90565b5f7f54696d656f757420686173206e6f742070617373656400000000000000000000910152565b610aaa6016602092610782565b610ab381610a76565b0190565b610acc9060208101905f818303910152610a9d565b90565b15610ad657565b610ade610142565b62461bcd60e51b815280610af460048201610ab7565b0390fd5b610b01906109ac565b90565b610b0d90610af8565b90565b610b19906109c8565b90565b634e487b7160e01b5f52601160045260245ffd5b610b3f610b459193929361042e565b9261042e565b8201809211610b5057565b610b1c565b610b5d610142565b3d5f823e3d90fd5b610b6e906109c8565b90565b90565b610b88610b83610b8d92610b71565b61094f565b61042e565b90565b60207f73616374696f6e2063616e2062652063616e63656c6c65640000000000000000917f4e6f7420696e206120737461746520696e20776869636820746865207472616e5f8201520152565b610bea6038604092610782565b610bf381610b90565b0190565b610c0c9060208101905f818303910152610bdd565b90565b15610c1657565b610c1e610142565b62461bcd60e51b815280610c3460048201610bf7565b0390fd5b610c48610c43611577565b610acf565b610c526004610827565b610c64610c5e5f6102a3565b916102a3565b145f14610cd0575f808080610c89610c84610c7f6002610775565b610b04565b610b10565b610c9230610b65565b3190828215610cc7575bf115610cc257610cb66007610cb05f610b74565b906117e5565b5b610cc05f610c0f565b565b610b55565b506108fc610c9c565b610cda6004610827565b610ced610ce760016102a3565b916102a3565b145f14610d97575f808080610d11610d0c610d0783610775565b610b04565b610b10565b610d1b6006610a17565b90828215610d8e575bf115610d89575f808080610d48610d43610d3e6002610775565b610b04565b610b10565b610d5130610b65565b3190828215610d80575bf115610d7b57610d756007610d6f5f610b74565b906117e5565b5b610cb7565b610b55565b506108fc610d5b565b610b55565b506108fc610d24565b610da16004610827565b610db4610dae60046102a3565b916102a3565b145f14610eb6575f808080610dd9610dd4610dcf6003610775565b610b04565b610b10565b610df6610de66009610a17565b610df0600c610a17565b90610b30565b90828215610ead575bf115610ea8575f808080610e22610e1d610e1883610775565b610b04565b610b10565b610e2c6006610a17565b90828215610e9f575bf115610e9a575f808080610e59610e54610e4f6002610775565b610b04565b610b10565b610e6230610b65565b3190828215610e91575bf115610e8c57610e866007610e805f610b74565b906117e5565b5b610d76565b610b55565b506108fc610e6c565b610b55565b506108fc610e35565b610b55565b506108fc610dff565b610ec06004610827565b610ed3610ecd60056102a3565b916102a3565b14610ede575b610e87565b5f808080610efc610ef7610ef26003610775565b610b04565b610b10565b610f19610f096009610a17565b610f13600c610a17565b90610b30565b90828215611014575bf11561100f575f808080610f45610f40610f3b83610775565b610b04565b610b10565b610f4f6006610a17565b90828215611006575bf115611001575f808080610f7c610f77610f726001610775565b610b04565b610b10565b610f86600d610a17565b90828215610ff8575bf115610ff3575f808080610fb3610fae610fa96002610775565b610b04565b610b10565b610fbc30610b65565b3190828215610fea575bf115610fe557610fe06007610fda5f610b74565b906117e5565b610ed9565b610b55565b506108fc610fc6565b610b55565b506108fc610f8f565b610b55565b506108fc610f58565b610b55565b506108fc610f22565b6110696110295f610775565b6110475f9161104161103b33926101ae565b916101ae565b146107e4565b61106361105d6110576004610827565b926102a3565b916102a3565b146108b3565b611071611140565b565b60207f7369740000000000000000000000000000000000000000000000000000000000917f41677265656420707269636520697320686967686572207468616e206465706f5f8201520152565b6110cd6023604092610782565b6110d681611073565b0190565b6110ef9060208101905f8183039101526110c0565b90565b156110f957565b611101610142565b62461bcd60e51b815280611117600482016110da565b0390fd5b61112a6111309193929361042e565b9261042e565b820391821161113b57565b610b1c565b6111663461115f6111596111546006610a17565b61042e565b9161042e565b10156110f2565b611171346008610971565b6111986111916111816008610a17565b61118b6006610a17565b9061111b565b600b610971565b6111ad60016111a7600f610a17565b906117e5565b565b6111b761101d565b565b5f90565b90565b6111cc6111d19161075c565b6111bd565b90565b6111de90546111c0565b90565b6111e96111b9565b506111f460056111d4565b90565b60207f74696f6e2063616e20626520636f6d706c657465640000000000000000000000917f4e6f7420696e206120737461746520776865726520746865207472616e7361635f8201520152565b6112516035604092610782565b61125a816111f7565b0190565b6112739060208101905f818303910152611244565b90565b1561127d57565b611285610142565b62461bcd60e51b81528061129b6004820161125e565b0390fd5b6112a96004610827565b6112bc6112b660026102a3565b916102a3565b1480156113e3575b6112cd90611276565b6112dd6112d8611577565b610acf565b5f8080806112fb6112f66112f16001610775565b610b04565b610b10565b6113056006610a17565b908282156113da575bf1156113d55761131e6004610827565b61133161132b60036102a3565b916102a3565b14611392575b5f80808061135561135061134b6002610775565b610b04565b610b10565b61135e30610b65565b3190828215611389575bf11561138457611382600761137c5f610b74565b906117e5565b565b610b55565b506108fc611368565b5f8080806113af6113aa6113a583610775565b610b04565b610b10565b6113b9600c610a17565b908282156113cc575bf161133757610b55565b506108fc6113c2565b610b55565b506108fc61130e565b506112cd6113f16004610827565b6114046113fe60036102a3565b916102a3565b1490506112c4565b61145a6114196004610775565b61143860059161143261142c33926101ae565b916101ae565b146107e4565b61145461144e6114486004610827565b926102a3565b916102a3565b146108b3565b611462611538565b565b90565b61147b61147661148092611464565b61094f565b61042e565b90565b61148d600a611467565b90565b60207f7665722064697370757465206665657300000000000000000000000000000000917f4e6f7420656e6f756768206d6f6e6579206465706f736974656420746f20636f5f8201520152565b6114ea6030604092610782565b6114f381611490565b0190565b61150c9060208101905f8183039101526114dd565b90565b1561151657565b61151e610142565b62461bcd60e51b815280611534600482016114f7565b0390fd5b61155c3461155561154f61154a611483565b61042e565b9161042e565b101561150f565b61156734600a610971565b565b61157161140c565b565b5f90565b61157f611573565b504261159c611596611591600e610a17565b61042e565b9161042e565b1190565b6115ee6115ad6003610775565b6115cc6003916115c66115c033926101ae565b916101ae565b146107e4565b6115e86115e26115dc6004610827565b926102a3565b916102a3565b146108b3565b6115f66115f8565b565b61161c3461161561160f61160a611483565b61042e565b9161042e565b101561150f565b611627346009610971565b61163c6004611636600f610a17565b906117e5565b565b6116466115a0565b565b61169f9061169a6116596001610775565b61167860049161167261166c33926101ae565b916101ae565b146107e4565b61169461168e6116886004610827565b926102a3565b916102a3565b146108b3565b6116a1565b565b6116b7906116b034600d610971565b60046109e3565b6116cc60056116c6600f610a17565b906117e5565b565b6116d790611648565b565b6117309061172b6116ea6001610775565b6117096001916117036116fd33926101ae565b916101ae565b146107e4565b61172561171f6117196004610827565b926102a3565b916102a3565b146108b3565b61176a565b565b61173b9061050f565b90565b6117479061075c565b90565b9061175f61175a61176692611732565b61173e565b8254610939565b9055565b61177590600561174a565b61178a6002611784600f610a17565b906117e5565b565b611795906116d9565b565b60a01b90565b906117ac60ff60a01b91611797565b9181191691161790565b6117bf906102a3565b90565b90565b906117da6117d56117e1926117b6565b6117c2565b825461179d565b9055565b611804916117f76117fd9260046117c5565b42610b30565b600e610971565b56fea2646970667358221220a68de7e5742ed5332c64c29309f0b0dcb65cc5e972943041982882364296632164736f6c634300081c0033","linkReferences":{}},"methodIdentifiers":{"buyer()":"7150d8ae","buyerDisputeSponsor()":"66fafd38","cancelTransaction()":"5c8cf750","completeTransaction()":"b3ae1d2c","currState()":"afe01043","getKey()":"82678dd6","getState()":"1865c57d","registerBuyerDisputeSponsor(address)":"1695edd3","registerVendorDisputeSponsor(address)":"d40c77fb","sendBuyerDisputeSponsorFee()":"cd1615c6","sendKey(bytes32)":"d7a98c84","sendPayment()":"6720ceb1","sendVendorDisputeSponsorFee()":"bec67887","sponsor()":"77c93662","timeout()":"70dea79a","timeoutHasPassed()":"cb102941","vendor()":"1385a6f2","vendorDisputeSponsor()":"42ecd2fb"},"id":0}